:08129500120DCA12116180FE66
:10000300FFC399BDBD99C3FFFFF787F7F7F7F7FF65
:10001300FFC3BDF9C79F81FFFFC3BDE3FDBDC3FFA1
:10002300FFF3CBBB01FBFBFFFFC1DF83BDBDC3FF01
:10003300FFC3BD83BDBDC3FFFF81FBF7EFEFDFFF51
:10004300FFC3BDC3BDBDC3FFFFC3BDBDC1F983FFB7
:100053003F065B4F666D7D077F6F777C395E7971F5
:10006300C0F9A4B0999282F880908883C6A1868E45
:100073000000000000000000002F00000000070047
:10008300070000147F147F1400242A7F2A120062C1
:10009300640813230036495522500000050300006D
:1000A30000001C224100000041221C000014083EF5
:1000B30008140008083E0808000000A060000008BB
:1000C300080808080000606000000020100804020F
:1000D300003E5149453E0000427F400000426151CD
:1000E3004946002141454B31001814127F10002767
:1000F30045454539003C4A4949300001710905032A
:1001030000364949493600064949291E000036365A
:1001130000000000563600000008142241000014BD
:10012300141414140000412214080002015109069A
:1001330000324959513E007C1211127C007F49491B
:100143004936003E41414122007F4141221C007F4C
:1001530049494941007F09090901003E4149497A5A
:10016300007F0808087F0000417F410000204041D4
:100173003F01007F08142241007F40404040007F40
:10018300020C027F007F0408107F003E4141413E84
:10019300007F09090906003E4151215E007F0919CC
:1001A30029460046494949310001017F0101003FC9
:1001B3004040403F001F2040201F003F4038403F49
:1001C30000631408146300070870080700615149AD
:1001D300454300007F41410000552A552A55000040
:1001E30041417F00000402010204004040404040BE
:1001F300000001020400002054545478007F484456
:10020300443800384444442000384444487F00388C
:100213005454541800087E0901020018A4A4A47CB5
:10022300007F080404780000447D4000004080847F
:100233007D00007F102844000000417F4000007CC7
:1002430004180478007C08040478003844444438D3
:1002530000FC242424180018242418FC007C08041F
:10026300040800485454542000043F444020003CF8
:100273004040207C001C2040201C003C4030403C7F
:10028300004428102844001CA0A0A07C004464540F
:100293004C44141414141414000000000000000053
:1002A3000000000000000000000000F80000000053
:1002B300000000333000000000100C06100C060094
:1002C300000000000000000040C07840C0784000FB
:1002D300043F04043F040400007088FC083000005D
:1002E300001820FF211E0000F008F000E0180000B5
:1002F30000211C031E211E0000F00888700000006E
:100303001E2123241927211010160E0000000000BF
:100313000000000000000000000000E018040200DC
:10032300000000071820400000020418E00000004D
:100333000040201807000000404080F0804040004B
:100343000202010F01020200000000F000000000A1
:100353000101011F01010100000000000000000075
:1003630080B07000000000000000000000000000EA
:100373000001010101010101000000000000000073
:10038300003030000000000000000000806018040E
:10039300006018060100000000E010080810E000EB
:1003A300000F102020100F00001010F800000000B4
:1003B3000020203F202000000070080808887000FB
:1003C300003028242221300000300888884830007B
:1003D3000018202020110E000000C02010F800009B
:1003E30000070424243F240000F808888808080034
:1003F3000019212020110E0000E010888818000049
:10040300000F112020110E0000380808C83808001A
:100413000000003F0000000000708808088870009A
:10042300001C222121221C0000E010080810E0001B
:100433000000312222110F00000000C0C0000000A4
:1004430000000030300000000000008000000000C9
:1004530000008060000000000000804020100800C1
:10046300000102040810200040404040404040008A
:100473000404040404040400000810204080000065
:100483000020100804020100007048080808F0006A
:100493000000003036010000C030C828E810E0003A
:1004A3000718272423140B000000C038E0000000C5
:1004B300203C23020227382008F88888887000002F
:1004C300203F202020110E00C03008080808380003
:1004D300071820202010080008F808080810E0007A
:1004E300203F202020100F0008F88888E80810001B
:1004F300203F20202320180008F88888E8081000EF
:10050300203F200003000000C03008080838000026
:1005130007182020221E020008F808000008F80827
:10052300203F210101213F20000808F808080000AE
:100533000020203F2020000000000808F8080800E1
:10054300C08080807F00000008F888C02818080059
:10055300203F20012638200008F808000000000092
:10056300203F20202020300008F8F800F8F8080089
:10057300203F003F003F200008F830C00008F80883
:10058300203F200007183F00E01008080810E00093
:100593000F10202020100F0008F808080808F000AA
:1005A300203F210101010000E01008080810E000CD
:1005B3000F18242438504F0008F888888888700062
:1005C300203F2000030C3020007088080808380002
:1005D3000038202121221C00180808F808081800F8
:1005E3000000203F2000000008F808000008F80879
:1005F300001F202020201F000878880000C838082A
:10060300000007380E010000F80800F80008F800A1
:10061300033C0700073C030008186880806818083B
:1006230020302C03032C30200838C800C8380800B9
:100633000000203F2000000010080808C838080008
:100643002038262120201800000000FE02020200AC
:100653000000007F40404000000C30C0000000005C
:10066300000000010638C00000020202FE00000084
:10067300004040407F00000000000402020204002A
:100683000000000000000000000000000000000067
:10069300808080808080808000020204000000004F
:1006A3000000000000000000000080808080000047
:1006B3000019242222223F2008F800808000000035
:1006C300003F112020110E000000008080800000F8
:1006D300000E112020201100000000808088F80007
:1006E300000E112020103F20000080808080000039
:1006F300001F222222221300008080F0888888189D
:100703000020203F202000000000808080808000A7
:10071300006B94949493600008F80080808000003C
:10072300203F210000203F20008098980000000017
:100733000020203F20200000000000809898000047
:1007430000C08080807F000008F800008080800067
:10075300203F24022D302000000808F8000000008C
:100763000020203F20200000808080808080800047
:10077300203F20003F20003F8080008080800000D9
:10078300203F210000203F20000080808080000067
:10079300001F202020201F00808000808000000098
:1007A30080FFA12020110E000000008080808000C7
:1007B300000E112020A0FF808080800080808000B8
:1007C30020203F21200001000000808080808000E5
:1007D3000033242424241900008080E0808000005A
:1007E3000000001F202000008080000000808000A7
:1007F300001F202020103F20808080000080808008
:1008030000010E3008060100808000800080808097
:100813000F300C030C300F000080800080808000BC
:100823000020312E0E3120008080800000808080E7
:1008330080818E7018060100008080808080800097
:100843000021302C2221300000000000807C0202B5
:1008530000000000003F404000000000FF000000D7
:1008630000000000FF0000000002027C8000000086
:100873000040403F000000000006010102020404A2
:1008830000000000000000000000000000000080E5
:100893008080808080808080808080C0C0C0C0C015
:1008A300C0C0C0C000000000000000000101010141
:1008B30001C18181E19C8F4640404060E0C0C0009F
:1008C3000000000000000000000000000000000025
:1008D30000C7FF080808080808888000FFFF030016
:1008E3000000000000000000000000000000000005
:1008F3000003070101010101010101011F0F0000B4
:1009030000000000000000000000000000000000E4
:10091300000030F0600000000000000870F00000EC
:1009230040C0808000000000000000808080808044
:10093300C04CCCFF662622200060E020203FF890C8
:100943001800E1C10000000000000181C1703E1CDD
:1009530020407FFF8404040000381F484820100F04
:100963001E3361C0F080000000020201000000009D
:10097300000000000001030306060C1C1C38383875
:1009830038301010101110000000000000000000AB
:100993000000F0F060000000000000000000000014
:1009A30018F0F02000000000000000000080C0F0FC
:1009B300980E878183C6868C1C000000FCFC000017
:1009C300003FFF00000000000000040201010001DD
:1009D300FF010010707F1F01800000001F3F000017
:1009E3000000FF0000000000000000000000000005
:1009F300070E0C0C0C0C0C0C0F0600000000020C74
:100A03003C3F1F0000000000000000000000000049
:100A13000080C04070302000000000000008F8F89B
:100A23001000000000000000000040C0C0406262EF
:100A330021E1FF1610181800002063630600FFFF72
:100A430000000000808000000000804020100806A5
:100A53000301FF0103020404040404060202FFFF6E
:100A6300030101010101010000000000000000007A
:100A730000061F0000000000000000000000073F08
:100A83000000000000000000000000000000000063
:100A93000000000000000000000080808080808053
:100AA3000000000000000000000000000000000043
:100AB30002020202020303FFFF010101010101011E
:100AC3000000000000000000000000000000000023
:100AD30000000000008080FFFF8080808080808095
:100AE300C0C0C0C0808000000000010303030303F3
:100AF30003030101010101010101010100000000E3
:100B030000000000000000000000000000000000E2
:100B13000080F0E0600000000080F07C180000001E
:100B230000000000000000000000000080C06038EA
:100B33001EF7010080C070180E0F09F8E80C0C04B2
:100B430086868606020000000004020301000000FE
:100B530080FF000100000000000000FFFF41616111
:100B6300616121200000000000000000000000007F
:100B7300070F0000000000000000007F1F000000BE
:100B830000000000000000000000000000000080E2
:100B93000000000000001838700080808080808092
:100BA300C08080000000000000000000101C0F0344
:100BB3000101111111D1F159191998080800000404
:100BC3000703030300000000000000000000000012
:100BD300008C8C8E8FC5FCFCC44445434F0C000035
:100BE30000000000000000000000000010103010A2
:100BF3001010101818181F1F08080808080C0C0CF0
:080C03000C0C080000000000C9
:03129D00810D00C0
:10122100E4FDFCAB07AA06D3EB9400EA9400400767
:10123100EB1B70F31A80F00DBD00010CED643C4C0A
:0212410070E15A
:011243002288
:10116100E4782FF2782FE2FBC43354E0FFE4FD1260
:10117100108F782FE204F2E2C3940440E7782F74D1
:1011810004F2782FE2FBC43354E02410FF7D0412F3
:0D119100108F782FE204F2E2C3940740E5CE
:01119E00222E
:0E119F00ED24B0FF1211AD7F011211AD7F10D3
:1011AD00C2A6E4FEC2A5EFA806088002C333D8FC90
:1011BD0030E704D2A48002C2A4D2A50EEEB408E496
:0111CD0022FF
:0D11CE00748B2BF58274083AF583E493FFCF
:1011DB00D2A6E4FEC2A5EFA806088002C333D8FC52
:1011EB0030E704D2A48002C2A4D2A50EEEB408E468
:0111FB0022D1
:0711FC00AA05E2FF08E2FD75
:10120300AC07ED24B0FF1211ADEC54F0C4540F44FD
:0E12130010FF1211ADEC540F4401FF0211AD9B
:10126700E4FD12119FE4FC7FFF1211DB0CECB4804C
:06127700F60DEDB408ECD9
:01127D00224E
:10127E00E4FD12119FE4FCE4FF1211DB0CECB480D0
:06128E00F60DEDB408ECC2
:011294002237
:100DCA00C2A3D2A5C2A77F1E7E00121221D2A77F7C
:100DDA00AE1211ADE4FF1211A87F401211AD7F814E
:100DEA001211AD7FCF1211AD7FA11211AD7FC812C2
:100DFA0011AD7FA61211AD7FA81211AD7F3F12115E
:100E0A00AD7FD31211ADE4FF1211AD7FD51211AD32
:100E1A007F801211AD7FD91211AD7FF11211AD7F12
:100E2A00DA1211AD7F121211AD7FDB1211AD7F40C4
:100E3A001211AD7F201211AD7F021211AD7F8D12FA
:100E4A0011AD7F141211AD7FA41211AD7FA612113C
:0F0E5A00AD7FAF1211AD12127EE4FDFF02120345
:10101A00780EEFF208EDF208EBF208EAF208E9F2CC
:10102A00E408F208F27810E2FB08E2FA08E2F9783A
:10103A0014E2F582758300120C24604824E07813C8
:10104A00F2780EE2D3947E4006E4F208E204F278E3
:10105A000E1211FEE4FD7813E275F006A42473F56E
:10106A0082E5F03400F583E5822DF582E4358312BA
:10107A0011D60DEDB406DF780EE22406F27814E2FA
:04108A0004F280A14B
:01108E00223F
:07124400C3EF9B14FD7F0ABC
:06124B007815EFF2A90581
:101251007F017E00AD0119ED600B7815E2FD7C0088
:05126100120C5180EFAA
:011266002265
:0D0EFF007816EFF208EDF208EAF208EBF2C7
:100F0C00E4FB781AE2FFEBC39F5076121244781878
:100F1C00E2FC08E2FDCFCDCFCECCCE120C637C0030
:100F2C007D0A120C6378161211FCE4FD75F010EAC0
:100F3C00A42DF582E435F0F583E582249BF582E55A
:100F4C008334031211D60DEDB408E17816E2FF08D4
:100F5C00E204FD121203E4FD75F010EAA42DF582F3
:100F6C00E435F0F583E58224A3F582E5833403129E
:100F7C0011D60DEDB408E17816E22408F20B020F3D
:010F8C000E56
:010F8D002241
:0D10FF00781BEFF208EDF208EAF208EBF2C0
:10110C00E4FB781FE2FFEBC39F5049121244781D99
:10111C00E2FC08E2FDCFCDCFCECCCE120CB87C00D9
:10112C007D0A120CB8781B1211FCE4FD75F006EA6E
:10113C00A424D3F582E5F03400F583E5822DF58205
:10114C00E435831211D60DEDB406E1781BE22406CA
:04115C00F20B80AE64
:01116000226C
:100E69007820EFF208EDF208EBF208EAF208E9F26D
:100E7900E408F208F27822E2FB08E2FA08E2F978DB
:100E890026E2F582758300120C24606924E0782536
:100E9900F278201211FEE4FD7825E275F010A42DF8
:100EA900F582E435F0F583E582249BF582E5833408
:100EB900021211D60DEDB408DF7820E2FF08E20432
:100EC900FD121203E4FD7825E275F010A42DF582D8
:100ED900E435F0F583E58224A3F582E58334021233
:100EE90011D60DEDB408DF7820E22408F27826E265
:050EF90004F2020E7E70
:010EFE0022D1
:06108F007830EFF2A90524
:10109500EB75F080A4FBAAF0E2FF121203E4FD1247
:1010A50011CE0BBB00010A0DEDB420F37830E2FF41
:1010B500E904FD121203E4FD1211CE0BBB00010A77
:1010C5000DEDB420F37830E2FFE92402FD1212039E
:1010D500E4FD1211CE0BBB00010A0DEDB420F3782F
:1010E50030E2FFE92403FD121203E4FD1211CE0BD9
:0910F500BB00010A0DEDB420F36B
:0110FE0022CF
:0E0CEE007828EBF208EAF208E9F27827EFF234
:100CFC00C374809FFFE49400C313EF13782EF2E4C7
:100D0C00782CF2782CE2FFC394084003020DC9EF53
:100D1C001211A0E4782DF2782EE2FD18E2C39D505A
:100D2C0015782BE260047FFF8002E4FF1211DB7860
:100D3C002DE204F280E1782DEDF2782EE2FF782797
:100D4C00E22FFFE433FE782DE2C39FEE6480F8744B
:100D5C0080985039782BE278286014E2FB0808E27E
:100D6C00F92401F218E2FA3400F2120C0B8013E2AF
:100D7C00FB0808E2F92401F218E2FA3400F2120C32
:100D8C000BF4FF1211DB782DE204F280AD782EE229
:100D9C00FF7827E22F782DF2782DE2C3948050153E
:100DAC00782BE260047FFF8002E4FF1211DB782DC8
:0D0DBC00E204F280E3782CE204F2020D0F55
:010DC9002207
:03000000020F8E5E
:0C0F8E00787FE4F6D8FD758107020FD5CE
:100C0B00BB010689828A83E0225002E722BBFE02E7
:090C1B00E32289828A83E493221A
:100C2400BB010CE58229F582E5833AF583E0225085
:100C340006E92582F8E622BBFE06E92582F8E222CF
:0D0C4400E58229F582E5833AF583E49322E9
:100C5100EF8DF0A4A8F0CF8CF0A428CE8DF0A42EB7
:020C6100FE2271
:100C6300BC000BBE0029EF8DF084FFADF022E4CC75
:100C7300F875F008EF2FFFEE33FEEC33FCEE9DEC3E
:100C8300984005FCEE9DFE0FD5F0E9E4CEFD22ED84
:100C9300F8F5F0EE8420D21CFEADF075F008EF2FCE
:100CA300FFED33FD4007985006D5F0F222C398FDBF
:050CB3000FD5F0EA225C
:100CB800C2D5EC30E709B2D5E4C39DFDE49CFCEE57
:100CC80030E715B2D5E4C39FFFE49EFE120C63C360
:100CD800E49DFDE49CFC8003120C6330D507C3E45B
:060CE8009FFFE49EFE22C6
:100F9A00021295E493A3F8E493A34003F68001F2C6
:100FAA0008DFF48029E493A3F85407240CC8C33358
:100FBA00C4540F4420C8834004F456800146F6DF27
:100FCA00E4800B010204081020408090129DE47E08
:100FDA00019360BCA3FF543F30E509541FFEE4931C
:100FEA00A360010ECF54C025E060A840B8E493A3E3
:100FFA00FAE493A3F8E493A3C8C582C8CAC583CA0E
:10100A00F0A3C8C582C8CAC583CADFE9DEE780BEC5
:0112A000004D
:00000001FF
