:0300000002009962
:0C009900787FE4F6D8FD7581090200E0D4
:100143003F065B4F666D7D077F6F777C395E797104
:0601600001090101080085
:10012500D3EF9400EE940040147D6F7C00ED1D70BC
:0D013500011CED4C70F7EF1F70E61E80E31B
:01014200229A
:10000300E50914607A04600302009875900FAF90BD
:100013007590F0AC90EF4CFBF46062AF03EF20E718
:10002300047D038016EF20E6047D02800EEF20E5B9
:10003300047D018006EF20E402E4FDEF20E3047E6B
:10004300038016EF20E2047E02800EEF20E1047E9F
:10005300018006EF20E002E4FEEE25E025E02DF529
:1000630008E590B4F0047B0180027B00E590B40FB7
:10007300047A0180027A00EA4B60E68015801375EA
:10008300900FAF907590F0AC90EF4CF46004E4F5F2
:050093000922750901BE
:010098002245
:0D015300120003E50890014393F58080F34E
:1000A500020153E493A3F8E493A34003F68001F21D
:1000B50008DFF48029E493A3F85407240CC8C3335C
:1000C500C4540F4420C8834004F456800146F6DF2B
:1000D500E4800B0102040810204080900160E47E5A
:1000E500019360BCA3FF543F30E509541FFEE49320
:1000F500A360010ECF54C025E060A840B8E493A3E7
:10010500FAE493A3F8E493A3C8C582C8CAC583CA11
:10011500F0A3C8C582C8CAC583CADFE9DEE780BEC9
:010166000098
:00000001FF
