:0A041B003F065B4F666D7D077F6FA3
:09041100010F00010A00010B00BB
:10022600EF75F00A84F512EF75F00A8485F0137FF6
:1002360049120436E51290042593FF1203B8E5131C
:0D02460090042593FF1203B87F320203F6E7
:10025300EF75F00A84F512EF75F00A8485F0137FC9
:1002630046120436E51290042593FF1203B8E513F2
:0D02730090042593FF1203B87F320203F6BA
:10028000EF75F00A84F512EF75F00A8485F0137F9C
:1002900043120436E51290042593FF1203B8E513C8
:0D02A00090042593FF1203B87F320203F68D
:1002AD00EF75F00A84F512EF75F00A8485F0137F6F
:1002BD000A120436E51290042593FF1203B8E513D4
:0D02CD0090042593FF1203B87F320203F660
:1002DA00EF75F00A84F512EF75F00A8485F0137F42
:1002EA0007120436E51290042593FF1203B8E513AA
:0D02FA0090042593FF1203B87F320203F633
:10030700EF75F00A84F512EF75F00A8485F0137F14
:1003170004120436E51290042593FF1203B8E5137F
:0D03270090042593FF1203B87F320203F605
:100003001201B5E4FF1204367F201203B87F0212F7
:1000130004367F321203B87F301203B87F0612040E
:10002300367F2D1203B87F091204367F2D1203B8D1
:100033007F451204367F3A1203B87F0D1204367FD0
:100043005E1203B87F5F1203B87F5E1203B87F4866
:100053001204367F3A1203B87F4D1204367F5E12C4
:1000630003B87F6F1203B87F5E1203B81201F57FE6
:10007300811203E58F08E5085470C4540F75F00A24
:10008300A4FFE508540F2FF509FF1202267F831200
:1000930003E58F08E5085470C4540F75F00AA4FFF4
:1000A300E508540F2FF50CFF1202537F851203E569
:1000B3008F08E5085470C4540F75F00AA4FFE508CF
:1000C300540F2FF511FF1202807F871203E58F086B
:1000D300E5085470C4540F75F00AA4FFE508540FE3
:1000E3002FF510FF1202AD7F891203E58F08E50893
:1000F3005470C4540F75F00AA4FFE508540F2FF58C
:100103000DFF1202DA7F8D1203E58F08E5085470A4
:10011300C4540F75F00AA4FFE508540F2FF50EFF22
:0601230012030702007246
:0A04250030313233343536373839C0
:0A040600E4FEEEC39F50030E80F8E1
:0104100022C9
:02035A00AD07ED
:10035C00C2B47F02120406E4FBED1392B57F0212C5
:10036C000406D2B4120406C2B4EDC313FD0BBB08D1
:01037C00E898
:01037D00225D
:10037E00AC05AD07C2B6C2B4D2B67F02120406AF48
:0E038E000512035AAF0412035AD2B4C2B622AB
:100334007F02120406E4FCEDC313FD30B50343054C
:1003440080D2B47F02120406C2B41204060CBC08A4
:05035400E6C2B5AF0593
:010359002281
:1003E500C2B6C2B4D2B612035A120334D2B4C2B6DC
:0103F50022E5
:1001F500E4FD7F8E12037EE4FD7F8012037E7D2069
:100205007F8212037E7D177F8412037E7D307F8679
:1002150012037E7D087F8812037E7D397F8C020361
:010225007E5A
:06042F00E4FF0FBF21FCF9
:0104350022A4
:0203F600AE0750
:0D03F800E4FDEDC39E500612042F0D80F5AC
:0104050022D4
:1003D200C2A5D2A4D2A300000000A2879200C2A3A9
:0203E200A20077
:0103E40022F6
:10039C001203D240FBC2A5C2A4C2A300008F8000EE
:0C03AC00000000D2A300000000C2A32249
:07043600EF4480FF02039C6C
:1003B8001203D240FBD2A5C2A4C2A38F80000000C2
:0A03C80000D2A300000000C2A3222F
:1001B5007F0F1203F67F3812039C7F051203F67F2B
:1001C5003812039C7F051203F67F3812039C7F05C6
:1001D5001203F67F0C12039C7F051203F67F0612AD
:1001E500039C1F1203F67F0112039C7F050203F691
:03000000020129D1
:0C012900787FE4F6D8FD7581200201709B
:10013500020003E493A3F8E493A34003F68001F2DD
:1001450008DFF48029E493A3F85407240CC8C333CB
:10015500C4540F4420C8834004F456800146F6DF9A
:10016500E4800B0102040810204080900411E47E15
:10017500019360BCA3FF543F30E509541FFEE4938F
:10018500A360010ECF54C025E060A840B8E493A356
:10019500FAE493A3F8E493A3C8C582C8CAC583CA81
:1001A500F0A3C8C582C8CAC583CADFE9DEE780BE39
:01041A0000E1
:00000001FF
