:03000000020402F5
:0C040200787FE4F6D8FD758161020003EC
:0A040E003F065B4F666D7D077F6FB0
:100331008F088D098B0A1203DBAF081202F520002A
:1003410002C322AF091202F5200002C322AF0A1232
:0C03510002F5200002C3221203F1D322A7
:1003A3008F088D091203DBAF081202F5200002C388
:1003B30022AF091202F5200002C3221203F1D32255
:020381008F08E3
:100383001203DBE50804FF1202F52000037F0022BD
:0F03930012035D8F09D2011203C31203F1AF09E8
:0103A2002238
:10000300E56114602514603A14604F14606424049D
:1000130070757D417F901203A37F90120381EF756A
:10002300F002A485F021F522805D7D427F901203CA
:10003300A37F90120381EF75F002A485F023F524CA
:1000430080457D437F901203A37F90120381EF7558
:10005300F002A485F025F526802D7D407F901203C4
:10006300A37F90120381EF75F002A485F027F52892
:100073008015E52AAE297802CEC313CE13D8F9FB37
:100083007D407F9012033185212985222A0561E570
:1000930061D394044003E4F561AE23AF247C277D50
:1000A300101202947E037FE8CFCDCFCECCCE1202C6
:1000B30094740E2FF58274043EF583E493FFE4FCFD
:1000C300FDFE9000001202E9AE23AF247C037DE81D
:1000D3001202947E007F64CFCDCFCECCCE12029499
:1000E300740E2FF58274043EF583E493FFE4FCFD64
:1000F300FE9000041202E9AE23AF247C007D64125B
:1001030002947E007F0ACFCDCFCECCCE1202947460
:100113000E2FF58274043EF583E4934480FFE4FCE0
:10012300FDFE9000081202E9AE23AF247C007D0A95
:10013300120294740E2DF58274043CF583E493FF4C
:10014300E4FCFDFE90000C1202E9AE25AF267C27ED
:100153007D101202947E037FE8CFCDCFCECCCE129A
:100163000294740E2FF58274043EF583E493FFE446
:10017300FCFDFE9000101202E9AE25AF267C037D44
:10018300E81202947E007F64CFCDCFCECCCE120294
:1001930094740E2FF58274043EF583E493FFE4FC1C
:1001A300FDFE9000141202E9AE25AF267C007D64AB
:1001B3001202947E007F0ACFCDCFCECCCE12029412
:1001C300740E2FF58274043EF583E4934480FFE4B8
:1001D300FCFDFE9000181202E9AE25AF267C007DDF
:1001E3000A120294740E2DF58274043CF583E49391
:1001F300FFE4FCFDFE90001C1202E9E4FBFAEBAE07
:10020300027802C333CE33CED8F92400F5827400CA
:100213003EF583A3A3A3E0F580EA7053EBB4080093
:10022300504D90022CF8282873020244020248021F
:10023300025002025402025C0202600202680202DD
:100243006CC2A28002D2A2C2A3C2A48022C2A28094
:1002530002D2A2D2A3C2A48016C2A28002D2A2C298
:10026300A3D2A4800AC2A28002D2A2D2A3D2A4E4BF
:10027300FFFE0FBF00010EEF645A4E70F50BBB007B
:10028300010AEB64084A6003020201E4F5800200FC
:010293000367
:1003DB00D2A100D2A00000000000C2A100000000CA
:0603EB0000C2A000002288
:1003F100C2A100D2A00000000000D2A100000000B4
:0104010022D8
:1002F500E4FEEFA806088002C333D8FC30E704D239
:10030500A18002C2A100D2A00000000000C2A00E80
:10031500BE08DF0000D2A10000D2A000000030A17D
:0B03250004C2008002D200C2A0000051
:0103300022AA
:10035D00E4FFD2A1FE00C2A00000000000D2A00068
:10036D0000EF25E0FF30A1010F00000EBE08E6C230
:03037D00A00000DD
:01038000225A
:1003C300200104C2A18002D2A1000000D2A000003B
:0803D300000000C2A00000229E
:10029400BC000BBE0029EF8DF084FFADF022E4CC4E
:1002A400F875F008EF2FFFEE33FEEC33FCEE9DEC17
:1002B400984005FCEE9DFE0FD5F0E9E4CEFD22ED5D
:1002C400F8F5F0EE8420D21CFEADF075F008EF2FA7
:1002D400FFED33FD4007985006D5F0F222C398FD98
:0502E4000FD5F0EA2235
:0C02E900ECF0A3EDF0A3EEF0A3EFF02288
:00000001FF
