:10038C003F065B4F666D7D077F6F777C395E7971B9
:08039C00000000000000000059
:0803C700021100000213000006
:0503610093F5907F01FF
:10036600E4FDFCC3ED9FEE6480F8EC6480985015C4
:10037600E4FBFA0BBB00010AEB646E4A70F50DBD97
:0503860000010C80DE07
:01038B00224F
:1003B700758901758C3C758AB0D2A9D28CD2AF22CF
:10018F0078087C007D007BFF7A03799C7E007F08D6
:10019F001200DE1203B7C3E5149410E513648094C4
:1001AF00A740170512E51270020511AE13AF147CAC
:1001BF00037DE81201048C138D14AE13AF147C0071
:1001CF007D0A1201048D08AE13AF147C007D0A1254
:1001DF0001047C007D0A1201048D09AE13AF147C5B
:1001EF00007D641201047C007D0A1201048D0AAEA9
:1001FF0013AF147C037DE81201047C007D0A120109
:10020F00048D0BAE11AF127C007D0A1201048D0C10
:10021F00AE11AF127C007D0A1201047C007D0A1220
:10022F0001048D0DAE11AF127C007D641201047CB0
:10023F00007D0A1201048D0EAE11AF127C037DE812
:10024F001201047C007D0A1201048D0FC2A4C2A307
:10025F00C2A2E50F90038C93F5907F017E001203ED
:10026F0066E4F590C2A4C2A3D2A2E50E120361E424
:10027F00F590C2A4D2A3C2A2E50D120361E4F590DA
:10028F00C2A4D2A3D2A2E50C120361E4F590D2A4CA
:10029F00C2A3C2A2E50B120361D2A4C2A3D2A2E5EC
:1002AF000A120361E4F590D2A4D2A3C2A2E5091207
:1002BF000361E4F590D2A4D2A3D2A2E508120361A0
:0602CF00E4F5900201A518
:03000B000203A449
:1003A400C0E0758CD8758AF00514E5147002051345
:0303B400D0E03264
:030000000202D524
:0C02D500787FE4F6D8FD75811402031C4C
:10000E00E709F608DFFA8046E709F208DFFA803ED4
:10001E0088828C83E709F0A3DFFA8032E309F608C1
:10002E00DFFA8078E309F208DFFA807088828C8329
:10003E00E309F0A3DFFA806489828A83E0A3F608DD
:10004E00DFFA805889828A83E0A3F208DFFA804CB7
:10005E0080D280FA80C680D4806980F2803380108E
:10006E0080A680EA809A80A880DA80E280CA8033F7
:10007E0089828A83ECFAE493A3C8C582C8CCC5836F
:10008E00CCF0A3C8C582C8CCC583CCDFE9DEE7803F
:10009E000D89828A83E493A3F608DFF9ECFAA9F0BE
:1000AE00EDFB2289828A83ECFAE0A3C8C582C8CC14
:1000BE00C583CCF0A3C8C582C8CCC583CCDFEADE2D
:1000CE00E880DB89828A83E493A3F208DFF980CC8F
:1000DE0088F0EF60010E4E60C388F0ED2402B40488
:1000EE000050B9F582EB2402B4040050AF2323452F
:0600FE00822390005E73F6
:10010400C2D5EC30E709B2D5E4C39DFDE49CFCEE16
:1001140030E715B2D5E4C39FFFE49EFE12013AC353
:10012400E49DFDE49CFC800312013A30D507C3E44E
:060134009FFFE49EFE2285
:1002E10002018FE493A3F8E493A34003F68001F2A3
:1002F10008DFF48029E493A3F85407240CC8C3331E
:10030100C4540F4420C8834004F456800146F6DFEC
:10031100E4800B01020408102040809003C7E47EB2
:10032100019360BCA3FF543F30E509541FFEE493E1
:10033100A360010ECF54C025E060A840B8E493A3A8
:10034100FAE493A3F8E493A3C8C582C8CAC583CAD3
:10035100F0A3C8C582C8CAC583CADFE9DEE780BE8B
:0103CF00002D
:10013A00BC000BBE0029EF8DF084FFADF022E4CCA9
:10014A00F875F008EF2FFFEE33FEEC33FCEE9DEC72
:10015A00984005FCEE9DFE0FD5F0E9E4CEFD22EDB8
:10016A00F8F5F0EE8420D21CFEADF075F008EF2F02
:10017A00FFED33FD4007985006D5F0F222C398FDF3
:05018A000FD5F0EA2290
:00000001FF
