:100226004C434431363032205445535400427920F1
:090236004265796F6E6461790084
:06027100E4FF0FBF21FCB9
:010277002264
:0501CC00A37FE87E03A3
:0401D100AD07AC06C4
:1001D500E4FBFAC3EB9DEC6480F8EA648098500A6E
:0A01E5001202710BBB00010A80E951
:0101EF0022ED
:10023F00C2A5D2A4D2A300000000A2879200C2A33D
:02024F00A2000B
:01025100228A
:1001F00012023F40FBC2A5C2A4C2A300008F800030
:0C020000000000D2A300000000C2A322F6
:07027800EF4480FF0201F0DA
:10020C0012023F40FBD2A5C2A4C2A38F8000000003
:0A021C0000D2A300000000C2A322DC
:100252001200F9FF600C12020C740129F9E43AFA57
:0302620080EE2209
:10018A007F0F7E001201D17F381201F07F05120124
:10019A00D17F381201F07F051201D17F381201F0A8
:1001AA007F051201D17F0C1201F07F051201D17F68
:1001BA00061201F01F1201D17F011201F07F050220
:0201CA0001D161
:1001120078217C007D007BFF7A0279267E007F0DAC
:100122001200D3782E7C007D007BFF7A0279337E29
:10013200007F0C1200D390000012018AE4FF120229
:10014200787F2012020C7F02120278AF8274212F74
:10015200F8E6FF600812020C1201CC80EEE4F5838F
:10016200F5827F45120278AF82742E2FF8E6FF6087
:100172000812020C1201CC80EEE4F583F5827F01B5
:080182001201F01201CD80B45E
:0300000002026594
:0C026500787FE4F6D8FD75813A020112A2
:10000300E709F608DFFA8046E709F208DFFA803EDF
:1000130088828C83E709F0A3DFFA8032E309F608CC
:10002300DFFA8078E309F208DFFA807088828C8334
:10003300E309F0A3DFFA806489828A83E0A3F608E8
:10004300DFFA805889828A83E0A3F208DFFA804CC2
:1000530080D280FA80C680D4806980F28033801099
:1000630080A680EA809A80A880DA80E280CA803302
:1000730089828A83ECFAE493A3C8C582C8CCC5837A
:10008300CCF0A3C8C582C8CCC583CCDFE9DEE7804A
:100093000D89828A83E493A3F608DFF9ECFAA9F0C9
:1000A300EDFB2289828A83ECFAE0A3C8C582C8CC1F
:1000B300C583CCF0A3C8C582C8CCC583CCDFEADE38
:1000C300E880DB89828A83E493A3F208DFF980CC9A
:1000D30088F0EF60010E4E60C388F0ED2402B40493
:1000E3000050B9F582EB2402B4040050AF2323453A
:0600F3008223900053730C
:1000F900BB010689828A83E0225002E722BBFE0205
:09010900E32289828A83E4932237
:00000001FF
