:06035300E4FF0FBF21FCD6
:010359002281
:02033700AE070F
:0D033900E4FDEDC39E50061203530D80F548
:010346002294
:1002FF00C2A5D2A4D2A300000000A2879201C2A37C
:02030F00A20149
:0103110022C9
:100297001202FF40FBC2A5C2A4C2A300008F8000C8
:0C02A700000000D2A300000000C2A3224F
:07035A00EF4480FF0202974F
:1002B3001202FF40FBD2A5C2A4C2A38F800000009C
:0A02C30000D2A300000000C2A32235
:100312001200FCFF600C1202B3740129F9E43AFAEC
:0303220080EE2248
:100257007F0F1203377F381202977F051203377F0C
:10026700381202977F051203377F381202977F05EE
:100277001203377F0C1202977F051203377F06128E
:1002870002971F1203377F011202977F0502033778
:1002E700495220446973706C61790049522D434F1C
:0802F70044453A202D2D48007A
:1001FC0078247C007D007BFF7A0279E77E007F0B00
:10020C001200D6782F7C007D007BFF7A0279F27E7B
:10021C00007F0D1200D6D2B27F0A7E001202CD12E0
:10022C0002577F0312035A7F0312035A7B007A0092
:10023C0079241203127F4212035A7B007A00792F21
:0B024C0012031275A88175880180FE66
:03000300020115E2
:0D011500C0E0C0F0C083C082C0D075D00033
:10012200752300C2A87F0F12032530B205D2A802A0
:1001320001F120B2077F0112032580F675210075B7
:10014200220030B2077F0112032580F620B2077F1A
:100152000112032580F630B2137F01120325052315
:10016200E523C3941E40EFD2A80201F174082521B1
:10017200F8C000E6FFC313D000F6E523C39408409D
:100182000974082521F8E64480F67523000522E566
:1001920022C3940840AC0521E521C3940440A0E5A4
:1001A2000BF4650A6004D2A88045E50A540FF50DE8
:1001B200E50AC4540FF50EE50DD3940940047437D3
:1001C20080027430250DF50DE50ED39409400474B8
:1001D2003780027430250EF50E7F4B12035AAF0E94
:0F01E2001202B37F4C12035AAF0D1202B3D2A810
:0B01F100D0D0D082D083D0F0D0E0321C
:10032500AD071FED600BE4FEEEC3940D50F20E8099
:01033500F7D0
:0103360022A4
:1002CD00EF1FAA0670011E4A600FE4FDEDC394FAFC
:0902DD0050EE000000000D80F35A
:0102E60022F5
:03000000020347B1
:0C034700787FE4F6D8FD75813C0201FCD3
:10000600E709F608DFFA8046E709F208DFFA803EDC
:1000160088828C83E709F0A3DFFA8032E309F608C9
:10002600DFFA8078E309F208DFFA807088828C8331
:10003600E309F0A3DFFA806489828A83E0A3F608E5
:10004600DFFA805889828A83E0A3F208DFFA804CBF
:1000560080D280FA80C680D4806980F28033801096
:1000660080A680EA809A80A880DA80E280CA8033FF
:1000760089828A83ECFAE493A3C8C582C8CCC58377
:10008600CCF0A3C8C582C8CCC583CCDFE9DEE78047
:100096000D89828A83E493A3F608DFF9ECFAA9F0C6
:1000A600EDFB2289828A83ECFAE0A3C8C582C8CC1C
:1000B600C583CCF0A3C8C582C8CCC583CCDFEADE35
:1000C600E880DB89828A83E493A3F208DFF980CC97
:1000D60088F0EF60010E4E60C388F0ED2402B40490
:1000E6000050B9F582EB2402B4040050AF23234537
:0600F60082239000567306
:1000FC00BB010689828A83E0225002E722BBFE0202
:09010C00E32289828A83E4932234
:00000001FF
