:1001B000202020202020202020202020202020203F
:1001C000004C434431323836342054657374696EC0
:1001D000670020202020204279204265796F6E64DC
:1001E0006179002020202020202020202020202095
:0401F00020202000AB
:04022C007F057E00CC
:0A023000EF1FAC0670011E4C6012B7
:10023A00E4F50DE50DC3949650EC00000000050DA1
:02024A0080F141
:01024C00228F
:0A02C200EF1FAC0670011E4C600E29
:0E02CC00E4F50CE50CC3946450EC050C80F5D1
:0102DA002201
:1002F400C2A5D2A4D2A300000000E580339200C2BC
:03030400A3A200B1
:0103070022D3
:10028A001202F440FBC2A5C2A4C2A300008F8000E0
:0C029A00000000D2A300000000C2A3225C
:03026D00ED93FF0F
:100270001202F440FBD2A5C2A4C2A38F80000000EA
:0A02800000D2A300000000C2A32278
:1001F400D2B5C2B77F037E00120230D2B77F037E2E
:10020400001202307F3412028A12022C7F30120252
:100214008A12022C7F0C12028A12022C7F01120213
:080224008A7F057E0002023012
:10024D00BF01047F808013BF02047F90800CBF0329
:10025D00047F888005BF04027F98EF2DFF02028A7C
:100114007F0812028A7F907E011202307F0C120245
:100124008A7F907E011202307F0812028A7F907EBD
:10013400011202307F0C12028A7F907E011202307B
:100144007F0812028A7FC87E001202307F0C1202DE
:100154008A12022C7F0112028A7F057E000202307D
:060090008B088A09890AB1
:100096007F3412028AE4FDED2480FF12028A7F80FB
:1000A60012028AE4F50BAB08050AE50AAA097002F2
:1000B600050914F91202DBFF120270050BE50BC3EA
:1000C600941040E27F017E001202C20DBD20C8E4FA
:1000D600FDED2480FF12028A7F8812028AE4F50B66
:1000E600AB08050AE50AAA097002050914F9120205
:1000F600DBFF120270050BE50BC3941040E27F0193
:0E0106007E001202C20DBD20C87F3602028AA2
:1002A6007F3412028A12022C7F3012028A12022C2A
:0C02B6007F0112028A7F057E00020230E8
:100164001202A67F8012028AE4FEEE2430FF1202FD
:10017400700EBE10F57F9012028AE4FEEE2440FF5A
:100184001202700EBE10F57F8812028AE4FEEE247D
:1001940050FF1202700EBE10F57F9812028AE4FE20
:0B01A400EE2460FF1202700EBE10F58A
:0101AF00222D
:100003007F647E001202301201F4E4FD7F011202CC
:100013004D9001B012026D7F1E7E001202300DBDA5
:1000230010EFE4FD7F0212024D9001C112026D7FB9
:100033001E7E001202300DBD10EFE4FD7F0312029D
:100043004DED9001D293FF1202707F1E7E001202CB
:10005300300DBD10ECE4FD7F0412024DED9001E381
:1000630093FF1202707F1E7E001202300DBD10EC52
:100073007FE87E031202301201141202A6120164F9
:0D0083007FD07E071202301202A602000D8F
:03000000020308F0
:0C030800787FE4F6D8FD75812002000328
:1002DB00BB010689828A83E0225002E722BBFE0221
:0902EB00E32289828A83E4932254
:00000001FF
