:10000300FEFDFBF7EFDFBF7F00003E4141413E00B5
:1000130000000000217F010000002745454539000D
:10002300000022494949360000000C14247F0400D3
:100033000000725151514E0000003E4949492600CB
:1000430000004040404F70000000364949493600E7
:100053000000324949493E00000000000000000052
:10006300000000000000000000000000000000008D
:10007300000000000000000000000000000000007D
:10008300000000000000000000000000000000006D
:08009300000000000000000065
:10009B00E4F50DE50C90000393F590E50D75F00874
:1000AB00A4240BF582E43400F583E582250CF5825C
:1000BB00E43583F583E493F5800509E509700205C2
:1000CB0008C39432E50894004013E4F508F50905DC
:1000DB000CE50C94084003E4F50CE4F580050BE506
:1000EB000B7002050AC39420E50A944E40A5E4F573
:1000FB000AF50B050DE50DD394094097E4F50D803A
:01010B009261
:0300000002010CEE
:0C010C00787FE4F6D8FD75810D02009BA1
:00000001FF
