:100093003F065B4F666D7D077F6F777C395E7971B5
:08006500C2A3D2A2A393F590FF
:10006D00E4FDFCC3ED9FEE6480F8EC6480985015C0
:10007D00E4FBFA0BBB00010AEB646E4A70F50DBD93
:05008D0000010C80DE03
:01009200224B
:10000300C2A4C2A3C2A2900093E493F5907F017EA1
:100013000012006DE4F590C2A4120065E4F590C2ED
:10002300A4D2A3C2A2120069E4F590C2A4D2A3127F
:100033000067E4F590D2A4C2A3C2A2120069E4F55A
:1000430090D2A4120065E4F590D2A4D2A3C2A21266
:100053000069E4F590D2A4D2A3120067E4F59002FC
:02006300000398
:030000000200A358
:0C00A300787FE4F6D8FD758107020003A9
:00000001FF
