:100310003F065B4F666D7D077F6F777C395E797135
:080320000000000000000000D5
:0502E50093F5907F017C
:1002EA00E4FDFCC3ED9FEE6480F8EC648098501541
:1002FA00E4FBFA0BBB00010AEB646E4A70F50DBD14
:05030A0000010C80DE83
:01030F0022CB
:1001840075080075090AE4F50AF50BF50CF50D7808
:100194000E7C00FD7BFF7A037920FE7F081200D3DA
:1001A400C3E50D9410E50C648094A7400D050BE5A0
:1001B4000B7002050AE4F50CF50DAE0CAF0D7C00D6
:1001C4007D0A1200F98D0EAE0CAF0D7C007D0A1273
:1001D40000F97C007D0A1200F98D0FAE0CAF0D7C86
:1001E400007D641200F97C007D0A1200F98D10AEC6
:1001F4000CAF0D7C037DE81200F97C007D0A12002F
:10020400F98D11AE0AAF0B7C007D0A1200F98D1234
:10021400AE0AAF0B7C007D0A1200F97C007D0A1245
:1002240000F98D13AE0AAF0B7C007D641200F97CDB
:10023400007D0A1200F98D14AE0AAF0B7C037DE831
:100244001200F97C007D0A1200F98D1575080075FD
:10025400090AE5091509AE08700215084E6077C24F
:10026400A4C2A3C2A2E51590031093F5907F017E6A
:10027400001202EAE4F590C2A4C2A3D2A2E51412C9
:1002840002E5E4F590C2A4D2A3C2A2E5131202E5EA
:10029400E4F590C2A4D2A3D2A2E5121202E5D2A43C
:1002A400C2A3C2A2E5111202E5E4F590D2A4C2A34E
:1002B400D2A2E5101202E5E4F590D2A4D2A3C2A220
:1002C400E50F1202E5D2A4D2A3D2A2E50E1202E5F2
:1002D400E4F590020256050DE50D7002050C0201CD
:0102E400A475
:03000000020328D0
:0C032800787FE4F6D8FD75811502018491
:10000300E709F608DFFA8046E709F208DFFA803EDF
:1000130088828C83E709F0A3DFFA8032E309F608CC
:10002300DFFA8078E309F208DFFA807088828C8334
:10003300E309F0A3DFFA806489828A83E0A3F608E8
:10004300DFFA805889828A83E0A3F208DFFA804CC2
:1000530080D280FA80C680D4806980F28033801099
:1000630080A680EA809A80A880DA80E280CA803302
:1000730089828A83ECFAE493A3C8C582C8CCC5837A
:10008300CCF0A3C8C582C8CCC583CCDFE9DEE7804A
:100093000D89828A83E493A3F608DFF9ECFAA9F0C9
:1000A300EDFB2289828A83ECFAE0A3C8C582C8CC1F
:1000B300C583CCF0A3C8C582C8CCC583CCDFEADE38
:1000C300E880DB89828A83E493A3F208DFF980CC9A
:1000D30088F0EF60010E4E60C388F0ED2402B40493
:1000E3000050B9F582EB2402B4040050AF2323453A
:0600F3008223900053730C
:1000F900C2D5EC30E709B2D5E4C39DFDE49CFCEE22
:1001090030E715B2D5E4C39FFFE49EFE12012FC369
:10011900E49DFDE49CFC800312012F30D507C3E464
:060129009FFFE49EFE2290
:10012F00BC000BBE0029EF8DF084FFADF022E4CCB4
:10013F00F875F008EF2FFFEE33FEEC33FCEE9DEC7D
:10014F00984005FCEE9DFE0FD5F0E9E4CEFD22EDC3
:10015F00F8F5F0EE8420D21CFEADF075F008EF2F0D
:10016F00FFED33FD4007985006D5F0F222C398FDFE
:05017F000FD5F0EA229B
:00000001FF
