:1018A3004143435F58202048004C004143435F5964
:1018B300202048004143435F5A20204800475952A3
:1018C3004F5F582048004759524F5F5920480047FF
:0818D30059524F5F5A204800F2
:100EEB007F807E25121B211218DB12136512000363
:100EFB007BFF7A1879A37D02E4FF1215257BFF7A1D
:100F0B001879AC7D027F511215257BFF7A1879AECB
:100F1B007D03E4FF1215257BFF7A1879AC7D037FE7
:100F2B00511215257BFF7A1879B77D04E4FF121552
:100F3B00257BFF7A1879AC7D047F511215257BFF39
:100F4B007A1879C07D05E4FF1215257BFF7A187995
:100F5B00AC7D057F511215257BFF7A1879C97D066B
:100F6B00E4FF1215257BFF7A1879AC7D067F5112B1
:100F7B0015257BFF7A1879D27D07E4FF1215257BA7
:100F8B00FF7A1879AC7D077F511215257D3B7FD0F9
:100F9B00121717EFFB7A009000247404F07D027F88
:100FAB00341216177D3C7FD0121717EFFB7A009087
:100FBB0000247404F07D027F5A1216177D3D7FD0FA
:100FCB00121717EFFB7A009000247404F07D037F57
:100FDB00341216177D3E7FD0121717EFFB7A009055
:100FEB0000247404F07D037F5A1216177D3F7FD0C7
:100FFB00121717EFFB7A009000247404F0FD7F3476
:10100B001216177D407FD0121717EFFB7A00900056
:10101B00247404F0FD7F5A1216177D437FD01217EC
:10102B0017EFFB7A009000247404F07D057F3412D7
:10103B0016177D447FD0121717EFFB7A0090002410
:10104B007404F07D057F5A1216177D457FD0121759
:10105B0017EFFB7A009000247404F07D067F3412A6
:10106B0016177D467FD0121717EFFB7A00900024DE
:10107B007404F07D067F5A1216177D477FD0121726
:10108B0017EFFB7A009000247404F07D077F341275
:10109B0016177D487FD0121717EFFB7A00900024AC
:0D10AB007404F07D077F5A121617020F978C
:10191200E490002DF0E5A054E3FF90002DE0FE25B9
:10192200E025E02FF5A0EE90007693F5807F017E12
:1019320000121A75E4F58090002DE004F0E0C394E3
:031942000840D288
:01194500227F
:1019780048433136352054657374205061737321A0
:101988000052657620446174612069733A004843C7
:0F1998003136352054657374206661696C210007
:1017E5008F80121ABB90002FEFF065807BFF70068B
:1017F5007A19797880057A197996E4FDFF1212C570
:101805007BFF7A1979897D02E4FF1212C590002FBA
:10181500E0FB7A0090002C7403F07D027F611214C6
:0118250004BE
:01182600229F
:101ABB00E4FFD297C296D29630B5010FE4FEC297DF
:101ACB00D297EF25E0FF30B5034401FF0EEEB407CC
:011ADB00ED1D
:011ADC0022E7
:10002600FFC399BDBD99C3FFFFF787F7F7F7F7FF42
:10003600FFC3BDF9C79F81FFFFC3BDE3FDBDC3FF7E
:10004600FFF3CBBB01FBFBFFFFC1DF83BDBDC3FFDE
:10005600FFC3BD83BDBDC3FFFF81FBF7EFEFDFFF2E
:10006600FFC3BDC3BDBDC3FFFFC3BDBDC1F983FF94
:100076003F065B4F666D7D077F6F777C395E7971D2
:10008600C0F9A4B0999282F880908883C6A1868E22
:100096000000000000000000002F00000000070024
:1000A600070000147F147F1400242A7F2A1200629E
:1000B600640813230036495522500000050300004A
:1000C60000001C224100000041221C000014083ED2
:1000D60008140008083E0808000000A06000000898
:1000E60008080808000060600000002010080402EC
:1000F600003E5149453E0000427F400000426151AA
:100106004946002141454B31001814127F10002743
:1001160045454539003C4A49493000017109050306
:1001260000364949493600064949291E0000363637
:10013600000000005636000000081422410000149A
:100146001414141400004122140800020151090677
:1001560000324959513E007C1211127C007F4949F8
:100166004936003E41414122007F4141221C007F29
:1001760049494941007F09090901003E4149497A37
:10018600007F0808087F0000417F410000204041B1
:100196003F01007F08142241007F40404040007F1D
:1001A600020C027F007F0408107F003E4141413E61
:1001B600007F09090906003E4151215E007F0919A9
:1001C60029460046494949310001017F0101003FA6
:1001D6004040403F001F2040201F003F4038403F26
:1001E600006314081463000708700807006151498A
:1001F600454300007F41410000552A552A5500001D
:1002060041417F000004020102040040404040409A
:10021600000001020400002054545478007F484432
:10022600443800384444442000384444487F003869
:100236005454541800087E0901020018A4A4A47C92
:10024600007F080404780000447D4000004080845C
:100256007D00007F102844000000417F4000007CA4
:1002660004180478007C08040478003844444438B0
:1002760000FC242424180018242418FC007C0804FC
:10028600040800485454542000043F444020003CD5
:100296004040207C001C2040201C003C4030403C5C
:1002A600004428102844001CA0A0A07C00446454EC
:1002B6004C44141414141414000000000000000030
:1002C6000000000000000000000000F80000000030
:1002D600000000333000000000100C06100C060071
:1002E600000000000000000040C07840C0784000D8
:1002F600043F04043F040400007088FC083000003A
:10030600001820FF211E0000F008F000E018000091
:1003160000211C031E211E0000F00888700000004A
:100326001E2123241927211010160E00000000009C
:100336000000000000000000000000E018040200B9
:10034600000000071820400000020418E00000002A
:100356000040201807000000404080F08040400028
:100366000202010F01020200000000F0000000007E
:100376000101011F01010100000000000000000052
:1003860080B07000000000000000000000000000C7
:100396000001010101010101000000000000000050
:1003A60000303000000000000000000080601804EB
:1003B600006018060100000000E010080810E000C8
:1003C600000F102020100F00001010F80000000091
:1003D6000020203F202000000070080808887000D8
:1003E6000030282422213000003008888848300058
:1003F6000018202020110E000000C02010F8000078
:1004060000070424243F240000F808888808080010
:100416000019212020110E0000E010888818000025
:10042600000F112020110E0000380808C8380800F7
:100436000000003F00000000007088080888700077
:10044600001C222121221C0000E010080810E000F8
:100456000000312222110F00000000C0C000000081
:1004660000000030300000000000008000000000A6
:10047600000080600000000000008040201008009E
:100486000001020408102000404040404040400067
:100496000404040404040400000810204080000042
:1004A6000020100804020100007048080808F00047
:1004B6000000003036010000C030C828E810E00017
:1004C6000718272423140B000000C038E0000000A2
:1004D600203C23020227382008F88888887000000C
:1004E600203F202020110E00C030080808083800E0
:1004F600071820202010080008F808080810E00057
:10050600203F202020100F0008F88888E8081000F7
:10051600203F20202320180008F88888E8081000CB
:10052600203F200003000000C03008080838000003
:1005360007182020221E020008F808000008F80804
:10054600203F210101213F20000808F8080800008B
:100556000020203F2020000000000808F8080800BE
:10056600C08080807F00000008F888C02818080036
:10057600203F20012638200008F80800000000006F
:10058600203F20202020300008F8F800F8F8080066
:10059600203F003F003F200008F830C00008F80860
:1005A600203F200007183F00E01008080810E00070
:1005B6000F10202020100F0008F808080808F00087
:1005C600203F210101010000E01008080810E000AA
:1005D6000F18242438504F0008F88888888870003F
:1005E600203F2000030C30200070880808083800DF
:1005F6000038202121221C00180808F808081800D5
:100606000000203F2000000008F808000008F80855
:10061600001F202020201F000878880000C8380806
:10062600000007380E010000F80800F80008F8007E
:10063600033C0700073C0300081868808068180818
:1006460020302C03032C30200838C800C838080096
:100656000000203F2000000010080808C8380800E5
:100666002038262120201800000000FE0202020089
:100676000000007F40404000000C30C00000000039
:10068600000000010638C00000020202FE00000061
:10069600004040407F000000000004020202040007
:1006A6000000000000000000000000000000000044
:1006B600808080808080808000020204000000002C
:1006C6000000000000000000000080808080000024
:1006D6000019242222223F2008F800808000000012
:1006E600003F112020110E000000008080800000D5
:1006F600000E112020201100000000808088F800E4
:10070600000E112020103F20000080808080000015
:10071600001F222222221300008080F08888881879
:100726000020203F20200000000080808080800084
:10073600006B94949493600008F800808080000019
:10074600203F210000203F200080989800000000F4
:100756000020203F20200000000000809898000024
:1007660000C08080807F000008F800008080800044
:10077600203F24022D302000000808F80000000069
:100786000020203F20200000808080808080800024
:10079600203F20003F20003F8080008080800000B6
:1007A600203F210000203F20000080808080000044
:1007B600001F202020201F00808000808000000075
:1007C60080FFA12020110E000000008080808000A4
:1007D600000E112020A0FF80808080008080800095
:1007E60020203F21200001000000808080808000C2
:1007F6000033242424241900008080E08080000037
:100806000000001F20200000808000000080800083
:10081600001F202020103F208080800000808080E4
:1008260000010E3008060100808000800080808074
:100836000F300C030C300F00008080008080800099
:100846000020312E0E3120008080800000808080C4
:1008560080818E7018060100008080808080800074
:100866000021302C2221300000000000807C020292
:1008760000000000003F404000000000FF000000B4
:1008860000000000FF0000000002027C8000000063
:100896000040403F0000000000060101020204047F
:1008A60000000000000000000000000000000080C2
:1008B6008080808080808080808080C0C0C0C0C0F2
:1008C600C0C0C0C00000000000000000010101011E
:1008D60001C18181E19C8F4640404060E0C0C0007C
:1008E6000000000000000000000000000000000002
:1008F60000C7FF080808080808888000FFFF0300F3
:1009060000000000000000000000000000000000E1
:100916000003070101010101010101011F0F000090
:1009260000000000000000000000000000000000C1
:10093600000030F0600000000000000870F00000C9
:1009460040C0808000000000000000808080808021
:10095600C04CCCFF662622200060E020203FF890A5
:100966001800E1C10000000000000181C1703E1CBA
:1009760020407FFF8404040000381F484820100FE1
:100986001E3361C0F080000000020201000000007A
:10099600000000000001030306060C1C1C38383852
:1009A6003830101010111000000000000000000088
:1009B6000000F0F0600000000000000000000000F1
:1009C60018F0F02000000000000000000080C0F0D9
:1009D600980E878183C6868C1C000000FCFC0000F4
:1009E600003FFF00000000000000040201010001BA
:1009F600FF010010707F1F01800000001F3F0000F4
:100A06000000FF00000000000000000000000000E1
:100A1600070E0C0C0C0C0C0C0F0600000000020C50
:100A26003C3F1F0000000000000000000000000026
:100A36000080C04070302000000000000008F8F878
:100A46001000000000000000000040C0C0406262CC
:100A560021E1FF1610181800002063630600FFFF4F
:100A66000000000080800000000080402010080682
:100A76000301FF0103020404040404060202FFFF4B
:100A86000301010101010100000000000000000057
:100A960000061F0000000000000000000000073FE5
:100AA6000000000000000000000000000000000040
:100AB6000000000000000000000080808080808030
:100AC6000000000000000000000000000000000020
:100AD60002020202020303FFFF01010101010101FB
:100AE6000000000000000000000000000000000000
:100AF60000000000008080FFFF8080808080808072
:100B0600C0C0C0C0808000000000010303030303CF
:100B160003030101010101010101010100000000BF
:100B260000000000000000000000000000000000BF
:100B36000080F0E0600000000080F07C18000000FB
:100B460000000000000000000000000080C06038C7
:100B56001EF7010080C070180E0F09F8E80C0C048F
:100B660086868606020000000004020301000000DB
:100B760080FF000100000000000000FFFF416161EE
:100B8600616121200000000000000000000000005C
:100B9600070F0000000000000000007F1F0000009B
:100BA60000000000000000000000000000000080BF
:100BB600000000000000183870008080808080806F
:100BC600C08080000000000000000000101C0F0321
:100BD6000101111111D1F1591919980808000004E1
:100BE60007030303000000000000000000000000EF
:100BF600008C8C8E8FC5FCFCC44445434F0C000012
:100C0600000000000000000000000000101030107E
:100C16001010101818181F1F08080808080C0C0CCC
:080C26000C0C080000000000A6
:041BD90041000D00BA
:101A7500E4FDFCAB07AA06D3EB9400EA940040070B
:101A8500EB1B70F31A80F00DBD00010CED643C4CAE
:021A950070E1FE
:011A9700222C
:091BC700E4900026F0A3F00000F8
:011BD00022F2
:101ADD00E4900030F0FEC292EF30E702D292EF2593
:101AED00E0FFC291A290E4334FFFD2910EEEB40805
:011AFD00E503
:011AFE0022C5
:101AFF00E4900031F0FEC292EF30E702D292EF2570
:101B0F00E0FFD291A290E4334FFFC2910EEEB408E2
:011B1F00E5E0
:011B200022A2
:0B1BBC002020000000000000000000DE
:101B2100900020EEF0A3EFF0758920758DFD758B87
:0E1B3100FDD28EC29FD29ED29CD2ACD2AF22E9
:0300230002182799
:10182700C0E0C0F0C083C082C0D075D000C000C087
:0D18370001C002C003C004C005C006C00708
:0A184400309807C298AF99121BD12B
:10184E00D007D006D005D004D003D002D001D000EE
:0B185E00D0D0D082D083D0F0D0E03298
:081BD1008F993099FDC29922A1
:101B6D00120D24FF600C121BD1740129F9E43AFA0D
:031B7D0080EE22D5
:0810B80090000EEEF0A3EFF032
:1010C00078107C007D017BFF7A1B79BF7E007F0852
:1010D000120CFE90000EE0FEA3E0FFC3EE648094CD
:1010E000805013A3742DF0C3E49FFFE49E90000E84
:1010F000F0A3EFF080069000107420F090000EE056
:10110000FEA3E0FFEE3395E0FDFC7BA07A8679013B
:1011100078001217A1EF2430900011F090000EE03B
:10112000FEA3E0FFEE3395E0FDFC7BA07A8679011B
:1011300078001217A1AC00AD01AE02AF03E47B1042
:101140007A27F9F81217A1EF2430900012F09000DE
:101150000EE0FAA3E0FB7C277D10FFAE02120DD15A
:101160007E037FE8CFCDCFCECCCE120DD1EF243091
:10117000900013F07C037DE8AF03AE02120DD17E28
:10118000007F64CFCDCFCECCCE120DD1EF2430A3D3
:10119000F090000EA3E07C007D64FFAE02120DD142
:1011A0007E007F0ACFCDCFCECCCE120DD1EF243032
:1011B000900015F07C007D0AAF03AE02120DD1ED58
:1011C0002430A3F07B017A007910121B6D7BFF7A2B
:0611D0001B79BC021B6D3F
:051BDE00D2A0D2A122FB
:0F1B8000D2A1D2A0121BC7C2A1121BC7C2A022A2
:0F1B8F00C2A0C2A1121BC7D2A0121BC7D2A12293
:101A0400E4900023F0D2A0121BC730A1129000234F
:101A1400E004F0E0D394FA40F1121B8F7F0122C25C
:061A2400A0121BC77F00A9
:011A2A002299
:0F1B9E00C2A0C2A1121BC7D2A0121BC7C2A02295
:0F1BAD00C2A0D2A1121BC7D2A0121BC7C2A02276
:05186900900023EFF0E8
:10186E00C2A0E4A3F0900023E0FF5480FEC4131343
:10187E0013540124FF92A1EF25E0F0121BC7D2A052
:10188E00121BC7C2A0121BC7900024E004F0E0C3D5
:04189E00940840D199
:0118A2002223
:0516D100900023EFF082
:1016D600E4900025F0900024F0C2A0121BC7D2A00F
:1016E600900025E0FF25E0F030A103E004F0121B96
:1016F600C7900024E004F0E0C3940840DC90002387
:10170600E07005121BAD8003121B9E900025E0FFC2
:0117160022B0
:10194600900020EFF0A3EDF0A3EBF0121B809000C7
:1019560020E0FF121869121A04900021E0FF121805
:1019660069121A04900022E0FF121869121A040282
:021976001B8FC5
:08171700900020EFF0A3EDF0BB
:10171F00E4A3F0121B80900020E0FF121869121A48
:10172F0004900021E0FF121869121A04121B809016
:10173F000020E004FF121869121A04E4FF1216D1F8
:0D174F00900022EFF0121B8F900022E0FFAF
:01175C00226A
:101A980036303530205465737420506173732100DB
:101AA8004D50553630353020546573742046616981
:031AB8006C21009E
:10000300E47D757FD0121717EF7BFFB468067A1A69
:0E001300799880047A1A79A8E4FDFF1212C5CC
:0100210022BC
:1018DB00121BDEE4FB7D6B7FD01219467B077D1953
:1018EB007FD01219467B067D1A7FD01219467B18C2
:1018FB007D1B7FD01219467B097D1C7FD0121946A8
:07190B007F0A7E00021A753D
:10167E00121B807FD0121869121A047F3B12186950
:10168E00121A04121B807FD1121869121A04E490E8
:10169E000032F07F011216D1900032E02400F58264
:1016AE00E43400F583EFF0121BC7900032E004F033
:1016BE00E0C3940D40DDE4FF1216D190000DEFF063
:0316CE00021B8F6D
:10175D00E4900033F0900033E0FBC43354E0FFE439
:10176D00FD1215A3900033E004F0E0C3940440E5AE
:10177D009000337404F0900033E0FBC43354E02444
:10178D0010FF7D041215A3900033E004F0E0C39424
:03179D000740E31F
:0117A0002226
:0E19A700ED24B0FF1219B57F011219B57F10A3
:1019B500C2A6E4FEC2A5EFA806088002C333D8FC80
:1019C50030E704D2A48002C2A4D2A50EEEB408E486
:0119D50022EF
:0D19D60074AE2BF58274083AF583E493FF9C
:1019E300D2A6E4FEC2A5EFA806088002C333D8FC42
:1019F30030E704D2A48002C2A4D2A50EEEB408E458
:011A030022C0
:071A2B00AA05E0FFA3E0FDA6
:101A3200AC07ED24B0FF1219B5EC54F0C4540F44B6
:0E1A420010FF1219B5EC540F4401FF0219B544
:101B3F00E4FD1219A7E4FC7FFF1219E30CECB4804B
:061B4F00F60DEDB408ECF8
:011B5500226D
:101B5600E4FD1219A7E4FCE4FF1219E30CECB480CF
:061B6600F60DEDB408ECE1
:011B6C002256
:10136500C2A3D2A5C2A77F1E7E00121A75D2A77F7F
:10137500AE1219B5E4FF1219B07F401219B57F817D
:101385001219B57FCF1219B57FA11219B57FC812F1
:1013950019B57FA61219B57FA81219B57F3F121985
:1013A500B57FD31219B5E4FF1219B57FD51219B55A
:1013B5007F801219B57FD91219B57FF11219B57F42
:1013C500DA1219B57F121219B57FDB1219B57F40F4
:1013D5001219B57F201219B57F021219B57F8D122A
:1013E50019B57F141219B57FA41219B57FA6121964
:0F13F500B57FAF1219B5121B56E4FDFF021A3275
:10152500900020EFF0A3EDF0A3EBF0A3EAF0A3E920
:01153500F0C5
:10153600E4A3F0A3F0900022E0FBA3E0FAA3E0F915
:10154600900026E0F582758300120D3D604E24E082
:10155600900025F0900020E0D3947E4006E4F0A3AE
:10156600E004F0900020121A2DE4FD900025E075AD
:10157600F006A42496F582E5F03400F583E5822D85
:10158600F582E435831219DE0DEDB406DE900020F7
:0C159600E02406F0900026E004F08099AC
:0115A2002226
:071A5000C3EF9B14FD7F0AA8
:071A5700900025EFF0A90546
:101A5E007F017E00AD0119ED600C900025E0FD7C4C
:061A6E0000120D6A80EE7B
:011A7400224F
:0E140400900028EFF0A3EDF0A3EAF0A3EBF0C8
:10141200E4FB90002CE0FFEBC39F507A121A50902D
:10142200002AE0FCA3E0FDCFCDCFCECCCE120D7CC6
:101432007C007D0A120D7C900028121A2BE4FD75A7
:10144200F010EAA42DF582E435F0F583E58224BE9E
:10145200F582E58334031219DE0DEDB408E1900044
:1014620028E0FFA3E004FD121A32E4FD75F010EA51
:10147200A42DF582E435F0F583E58224C6F582E5F4
:101482008334031219DE0DEDB408E1900028E02444
:0614920008F00B02141427
:011498002231
:0E161700900020EFF0A3EDF0A3EAF0A3EBF0BB
:10162500E4FB900024E0FFEBC39F504C121A50904E
:101635000022E0FCA3E0FDCFCDCFCECCCE120DD164
:101645007C007D0A120DD1900020121A2BE4FD7545
:10165500F006EAA424F6F582E5F03400F583E58288
:101665002DF582E435831219DE0DEDB406E1900007
:0816750020E02406F00B80AA1E
:01167D00224A
:1012C500900020EFF0A3EDF0A3EBF0A3EAF0A3E983
:0112D500F028
:1012D600E4A3F0A3F0900022E0FBA3E0FAA3E0F978
:1012E600900026E0F582758300120D3D607024E0C3
:1012F600900025F0900020121A2DE4FD900025E0C4
:1013060075F010A42DF582E435F0F583E58224BE50
:10131600F582E58334021219DE0DEDB408DE900085
:1013260020E0FFA3E004FD121A32E4FD900025E060
:1013360075F010A42DF582E435F0F583E58224C618
:10134600F582E58334021219DE0DEDB408DE900055
:0E13560020E02408F0900026E004F00212DBF4
:011364002266
:0715A300900034EFF0A905F0
:1015AA00EB75F080A4FBAAF0E0FF121A32E4FD12F8
:1015BA0019D60BBB00010A0DEDB420F3900034E0FC
:1015CA00FFE904FD121A32E4FD1219D60BBB000121
:1015DA000A0DEDB420F3900034E0FFE92402FD1275
:1015EA001A32E4FD1219D60BBB00010A0DEDB42024
:1015FA00F3900034E0FFE92403FD121A32E4FD12ED
:0C160A0019D60BBB00010A0DEDB420F353
:0116160022B1
:1011D600900019EBF0A3EAF0A3E9F0900018EFF005
:1011E600C374809FFFE49400C313EF1390001FF0B5
:1011F600E490001DF090001DE0FFC3940840030238
:1012060012C4EF1219A8E4A3F090001FE0FD9000AD
:101216001EE0C39D501790001CE060047FFF800213
:10122600E4FF1219E390001EE004F080DC90001E3B
:10123600EDF090001FE0FF900018E02FFFE433FE72
:1012460090001EE0C39FEE6480F87480985038903A
:10125600001CE09000196012E0FBA3E475F0011297
:101266000E07A9F0FA120D248011E0FBA3E475F035
:1012760001120E07A9F0FA120D24F4FF1219E390D9
:10128600001EE004F080AB90001FE0FF900018E025
:101296002F90001EF090001EE0C39480501790001F
:1012A6001CE060047FFF8002E4FF1219E390001E39
:0E12B600E004F080E090001DE004F00211FB67
:0112C4002207
:030000000214994E
:0C149900787FE4F6D8FD7581070214E0AE
:100C2E00E709F608DFFA8046E709F208DFFA803EA8
:100C3E0088828C83E709F0A3DFFA8032E309F60895
:100C4E00DFFA8078E309F208DFFA807088828C83FD
:100C5E00E309F0A3DFFA806489828A83E0A3F608B1
:100C6E00DFFA805889828A83E0A3F208DFFA804C8B
:100C7E0080D280FA80C680D4806980F28033801062
:100C8E0080A680EA809A80A880DA80E280CA8033CB
:100C9E0089828A83ECFAE493A3C8C582C8CCC58343
:100CAE00CCF0A3C8C582C8CCC583CCDFE9DEE78013
:100CBE000D89828A83E493A3F608DFF9ECFAA9F092
:100CCE00EDFB2289828A83ECFAE0A3C8C582C8CCE8
:100CDE00C583CCF0A3C8C582C8CCC583CCDFEADE01
:100CEE00E880DB89828A83E493A3F208DFF980CC63
:100CFE0088F0EF60010E4E60C388F0ED2402B4045C
:100D0E000050B9F582EB2402B4040050AF23234502
:060D1E008223900C7E739D
:100D2400BB010689828A83E0225002E722BBFE02CD
:090D3400E32289828A83E4932200
:100D3D00BB010CE58229F582E5833AF583E022506B
:100D4D0006E92582F8E622BBFE06E92582F8E222B5
:0D0D5D00E58229F582E5833AF583E49322CF
:100D6A00EF8DF0A4A8F0CF8CF0A428CE8DF0A42E9D
:020D7A00FE2257
:100D7C00BC000BBE0029EF8DF084FFADF022E4CC5B
:100D8C00F875F008EF2FFFEE33FEEC33FCEE9DEC24
:100D9C00984005FCEE9DFE0FD5F0E9E4CEFD22ED6A
:100DAC00F8F5F0EE8420D21CFEADF075F008EF2FB4
:100DBC00FFED33FD4007985006D5F0F222C398FDA5
:050DCC000FD5F0EA2242
:100DD100C2D5EC30E709B2D5E4C39DFDE49CFCEE3D
:100DE10030E715B2D5E4C39FFFE49EFE120D7CC32C
:100DF100E49DFDE49CFC8003120D7C30D507C3E427
:060E01009FFFE49EFE22AB
:100E0700A3F8E0C5F025F0F0E5821582700215839E
:060E1700E0C838F0E822FB
:1017A100C2D5E830E70FB2D5E4C39BFBE49AFAE473
:1017B10099F9E498F8EC30E717B2D51217D7120E61
:1017C10059E4C39BFBE49AFAE499F9E498F880039D
:1017D100120E5930D50DE4C39FFFE49EFEE49DFD3A
:0417E100E49CFC2266
:1014A500020EEBE493A3F8E493A34003F68001F264
:1014B50008DFF48029E493A3F85407240CC8C33348
:1014C500C4540F4420C8834004F456800146F6DF17
:1014D500E4800B0102040810204080901BD9E47EB3
:1014E500019360BCA3FF543F30E509541FFEE4930C
:1014F500A360010ECF54C025E060A840B8E493A3D3
:10150500FAE493A3F8E493A3C8C582C8CAC583CAFD
:10151500F0A3C8C582C8CAC583CADFE9DEE780BEB5
:011BDD000007
:100E1D0075F008758200EF2FFFEE33FECD33CDCC8C
:100E2D0033CCC58233C5829BED9AEC99E58298400F
:100E3D000CF582EE9BFEED9AFDEC99FC0FD5F0D6EC
:100E4D00E4CEFBE4CDFAE4CCF9A88222B800C1B916
:100E5D000059BA002DEC8BF084CFCECDFCE5F0CB54
:100E6D00F97818EF2FFFEE33FEED33FDEC33FCEB8D
:100E7D0033FB10D703994004EB99FB0FD8E5E4F948
:100E8D00FA227818EF2FFFEE33FEED33FDEC33FC35
:100E9D00C933C910D7059BE99A4007EC9BFCE99A29
:100EAD00F90FD8E0E4C9FAE4CCFB2275F010EF2F6E
:100EBD00FFEE33FEED33FDCC33CCC833C810D7076E
:100ECD009BEC9AE899400AED9BFDEC9AFCE899F8A9
:0E0EDD000FD5F0DAE4CDFBE4CCFAE4C8F9223C
:00000001FF
