:100401000D28446973705F48432D53523034000BFB
:100411003730313233343536373839000142000153
:020421002300B6
:10044500D3EF9400EE940040147D6E7C00ED1D709A
:0D045500011CED4C70F7EF1F70E61E80E3F8
:010462002277
:0604DF00E4FF0FBF64FC06
:0104E50022F4
:0604E600E4FF0FBF21FC42
:0104EC0022ED
:02000300AE0746
:0D000500E4FDEDC39E50061204E60D80F5EB
:0100120022CB
:10049900C2A5D2A4D2A300000000A2879200C2A3E1
:0204A900A200AF
:0104AB00222E
:1004630012049940FBC2A5C2A4C2A300008F80005E
:0C047300000000D2A300000000C2A32281
:0704ED00EF4480FF020463ED
:10047F0012049940FBD2A5C2A4C2A38F8000000032
:0A048F0000D2A300000000C2A32267
:1004AC001201DBFF600C12047F740129F9E43AFAA3
:0304BC0080EE22AD
:1003C1007F0F1200037F381204637F051200037F41
:1003D100381204637F051200037F381204637F051E
:1003E1001200037F0C1204637F051200037F0612C3
:1003F10004631F1200037F011204637F05020003DF
:0F04D000758901E4F58CF58AC2AFC2A9C2AA22D0
:03001300020424C0
:10042400C0D075D000C007AF8C7521008F22AF8A71
:100434007524008F25752301C2AAC28CD007D0D0A1
:010444003285
:10025700C2AFD2B3D2B61204DFC2B630B3FDE4F5F3
:1002670023D2AFD2AAD28CF58CF58AFFFE0FBF003E
:10027700010EEF64644E70F57F017E00120445C2E3
:100287008CC2AAE5236401600302032AE5227F00EA
:10029700FEEF2525F527E5243EF526FCAD27E412DC
:1002A70001217BC57A207930783E12001612015A57
:1002B7008E358F367C037DE81201F4EF2430F50884
:1002C700AE35AF367C037DE81201F47E007F64CF44
:1002D700CDCFCECCCE1201F4EF2430F509AE35AF39
:1002E700367C007D641201F47E007F0ACFCDCFCE2D
:1002F700CCCE1201F4EF2430F50AAE35AF367C00D0
:100307007D0A1201F4ED2430FE7F021204ED7B001A
:100317007A0079081204AC7F2E12047FAF0612040C
:0D0327007FD290E5237006F535F536C290C3
:0103340022A6
:1004BF001204D01203C1D290C2B6D2AF120257802B
:0104CF00FB31
:10001600EC4D6011E8497017ED33EC3304600DE4E4
:10002600FCFFFEFD22E933E8330470F80201C61234
:10003600019158046009E4CC248150062850090235
:1000460001D02840030201CDC0E0EB4A7044B980DC
:1000560006D0E0FB0201BCEF4E701CBD8008EBFF32
:10006600EAFEE9FD80EBE98DF0A4FEE5F00200FF73
:10007600E9CDF9EAFEEBFFEF89F0A4FCE5F0CE89C5
:10008600F0A42EFFE435F0CD89F0A42DFEE435F082
:100096008067EF4E7005BD80D780C3EF8BF0A4ACB0
:1000A600F0EE8BF0A42CFCE435F0F8EF8AF0A42CEB
:1000B600E5F038FCE433CB8DF0A42CFCE5F03BF8FE
:1000C600EE8AF0A42CFCE5F038F8E433CF89F0A4EE
:1000D6002CFCE5F038CF3400CE89F0A42FFFE5F0F4
:1000E6003EFEE433C98DF0A42EFEE5F039CD8AF04C
:1000F600A42FFFE5F03EFEE43DFD33D0E0FB5007C4
:100106000BBB000F0201D0EC2CFCEF33FFEE33FEED
:06011600ED33FD0201A81B
:10011C0075F020800E75F010800575F0087D007E5E
:10012C00007F003392D530D503120249EC334010D6
:10013C00EF33FFEE33FEED33FDEC33FCD5F0ED2267
:0E014C00E5F0247EA2D513CC92E7CDCEFF22A3
:10015A00EDD2E7CD33EC3392D524814006E4FFFE9D
:10016A00FDFC22FCE4CFCECDCC24E0501174FF80FC
:10017A00EDC3CC13CCCD13CDCE13CECF13CF047099
:07018A00F030D5DE0202494E
:10019100E9D2E7C933E833F892D5EDD2E7CD33ECB4
:0701A10033FC5002B2D5222D
:1001A800EC30E7100FBF000C0EBE00080DBD0004B8
:1001B8000BEB6014A2D5EB13FCED92E7FD2274FF64
:1001C800FCFDFEFF22E480F8A2D574FF13FC7D80BD
:0301D800E480EFD1
:03000000020335C3
:0C033500787FE4F6D8FD75814202037C5D
:1001DB00BB010689828A83E0225002E722BBFE0222
:0901EB00E32289828A83E4932255
:1001F400BC000BBE0029EF8DF084FFADF022E4CCEF
:10020400F875F008EF2FFFEE33FEEC33FCEE9DECB7
:10021400984005FCEE9DFE0FD5F0E9E4CEFD22EDFD
:10022400F8F5F0EE8420D21CFEADF075F008EF2F47
:10023400FFED33FD4007985006D5F0F222C398FD38
:050244000FD5F0EA22D5
:0E024900C3E49FFFE49EFEE49DFDE49CFC22C6
:100341000204BFE493A3F8E493A34003F68001F20F
:1003510008DFF48029E493A3F85407240CC8C333BD
:10036100C4540F4420C8834004F456800146F6DF8C
:10037100E4800B0102040810204080900401E47E17
:10038100019360BCA3FF543F30E509541FFEE49381
:10039100A360010ECF54C025E060A840B8E493A348
:1003A100FAE493A3F8E493A3C8C582C8CAC583CA73
:1003B100F0A3C8C582C8CAC583CADFE9DEE780BE2B
:0104230000D8
:00000001FF
