:0B1E7C00121ED81210E8121DAE80FEEE
:101E42004265796F6E6461792053747564696F00BD
:0D1E62007BFF7A1E79427D027F020216533B
:101D63007F38121D7C7F0C121D7C7F06121D7C7F29
:091D730001121D7C7F80021D7C21
:101DC700C2A5D2A4D2A37F017E00121C41E58033B5
:061DD7009200C2A3A2006D
:011DDD0022E3
:101D7C00C2A4C2A58F807F017E00121C41D2A37F1A
:091D8C00017E00121C41C2A322D9
:101D9500C2A4D2A58F807F017E00121C41D2A37FF1
:091DA500017E00121C41C2A322C0
:101653007800EFF27802EBF208EAF208E9F2780197
:02166300EDF2A6
:10166500E47805F2BD01077800E2247F800A78015D
:10167500E2B4020818E224BFFF121D7C7802E2FBE7
:1016850008E2FA08E2F908E2F582758300120D3DD9
:0D169500FF600A121D957805E204F280DF67
:0116A2002225
:0D1A9C007806EEF208EFF208ECF208EDF229
:101AA9007F017E00780808E2FD24FFF218E2FC3489
:101AB900FFF2ED4C600C7806E2FC08E2FD120D8C99
:021AC90080E2B9
:011ACB0022F8
:0F143F00780AEFF2780CEAF208EBF2780BEDF294
:10144E00BD010618E2247F800A780BE2B402081868
:10145E00E224BFFF121D7CE47810F2780EE2FF78D2
:10146E0010E2FEC39F5042EEFDC3EF9DFFE49400D9
:10147E00CF24FFFDEF34FFFC7F0A7E00121A9C780A
:10148E000CE2FC08E2FDCFCDCFCECCCE120D9E7C71
:10149E00007D0A120D9EAF05780FEFF22430FF1279
:0914AE001D957810E204F280B2F1
:0114B7002212
:101A6B00E47811F2E5A054E3FF7811E2FE25E025BE
:101A7B00E02FF5A0EE90007693F5807F017E0012AB
:101A8B001C41E4F5807811E204F2E2C3940840D4DF
:011A9B002228
:101ACC00484331363520546573742050617373214B
:101ADC000052657620446174612069733A00484372
:0F1AEC003136352054657374206661696C2100B2
:101911008F80121C877813EFF265807BFF70067A47
:101921001A79CC80057A1A79EAE4FDFF1211877BD6
:10193100FF7A1A79DD7D02E4FF1211877813E2FB49
:0E1941007A0078417403F27D027F6112121D5C
:01194F002275
:101C8700E4FFD297C296D29630B5010FE4FEC29711
:101C9700D297EF25E0FF30B5034401FF0EEEB407FE
:011CA700ED4F
:011CA8002219
:10002600FFC399BDBD99C3FFFFF787F7F7F7F7FF42
:10003600FFC3BDF9C79F81FFFFC3BDE3FDBDC3FF7E
:10004600FFF3CBBB01FBFBFFFFC1DF83BDBDC3FFDE
:10005600FFC3BD83BDBDC3FFFF81FBF7EFEFDFFF2E
:10006600FFC3BDC3BDBDC3FFFFC3BDBDC1F983FF94
:100076003F065B4F666D7D077F6F777C395E7971D2
:10008600C0F9A4B0999282F880908883C6A1868E22
:100096000000000000000000002F00000000070024
:1000A600070000147F147F1400242A7F2A1200629E
:1000B600640813230036495522500000050300004A
:1000C60000001C224100000041221C000014083ED2
:1000D60008140008083E0808000000A06000000898
:1000E60008080808000060600000002010080402EC
:1000F600003E5149453E0000427F400000426151AA
:100106004946002141454B31001814127F10002743
:1001160045454539003C4A49493000017109050306
:1001260000364949493600064949291E0000363637
:10013600000000005636000000081422410000149A
:100146001414141400004122140800020151090677
:1001560000324959513E007C1211127C007F4949F8
:100166004936003E41414122007F4141221C007F29
:1001760049494941007F09090901003E4149497A37
:10018600007F0808087F0000417F410000204041B1
:100196003F01007F08142241007F40404040007F1D
:1001A600020C027F007F0408107F003E4141413E61
:1001B600007F09090906003E4151215E007F0919A9
:1001C60029460046494949310001017F0101003FA6
:1001D6004040403F001F2040201F003F4038403F26
:1001E600006314081463000708700807006151498A
:1001F600454300007F41410000552A552A5500001D
:1002060041417F000004020102040040404040409A
:10021600000001020400002054545478007F484432
:10022600443800384444442000384444487F003869
:100236005454541800087E0901020018A4A4A47C92
:10024600007F080404780000447D4000004080845C
:100256007D00007F102844000000417F4000007CA4
:1002660004180478007C08040478003844444438B0
:1002760000FC242424180018242418FC007C0804FC
:10028600040800485454542000043F444020003CD5
:100296004040207C001C2040201C003C4030403C5C
:1002A600004428102844001CA0A0A07C00446454EC
:1002B6004C44141414141414000000000000000030
:1002C6000000000000000000000000F80000000030
:1002D600000000333000000000100C06100C060071
:1002E600000000000000000040C07840C0784000D8
:1002F600043F04043F040400007088FC083000003A
:10030600001820FF211E0000F008F000E018000091
:1003160000211C031E211E0000F00888700000004A
:100326001E2123241927211010160E00000000009C
:100336000000000000000000000000E018040200B9
:10034600000000071820400000020418E00000002A
:100356000040201807000000404080F08040400028
:100366000202010F01020200000000F0000000007E
:100376000101011F01010100000000000000000052
:1003860080B07000000000000000000000000000C7
:100396000001010101010101000000000000000050
:1003A60000303000000000000000000080601804EB
:1003B600006018060100000000E010080810E000C8
:1003C600000F102020100F00001010F80000000091
:1003D6000020203F202000000070080808887000D8
:1003E6000030282422213000003008888848300058
:1003F6000018202020110E000000C02010F8000078
:1004060000070424243F240000F808888808080010
:100416000019212020110E0000E010888818000025
:10042600000F112020110E0000380808C8380800F7
:100436000000003F00000000007088080888700077
:10044600001C222121221C0000E010080810E000F8
:100456000000312222110F00000000C0C000000081
:1004660000000030300000000000008000000000A6
:10047600000080600000000000008040201008009E
:100486000001020408102000404040404040400067
:100496000404040404040400000810204080000042
:1004A6000020100804020100007048080808F00047
:1004B6000000003036010000C030C828E810E00017
:1004C6000718272423140B000000C038E0000000A2
:1004D600203C23020227382008F88888887000000C
:1004E600203F202020110E00C030080808083800E0
:1004F600071820202010080008F808080810E00057
:10050600203F202020100F0008F88888E8081000F7
:10051600203F20202320180008F88888E8081000CB
:10052600203F200003000000C03008080838000003
:1005360007182020221E020008F808000008F80804
:10054600203F210101213F20000808F8080800008B
:100556000020203F2020000000000808F8080800BE
:10056600C08080807F00000008F888C02818080036
:10057600203F20012638200008F80800000000006F
:10058600203F20202020300008F8F800F8F8080066
:10059600203F003F003F200008F830C00008F80860
:1005A600203F200007183F00E01008080810E00070
:1005B6000F10202020100F0008F808080808F00087
:1005C600203F210101010000E01008080810E000AA
:1005D6000F18242438504F0008F88888888870003F
:1005E600203F2000030C30200070880808083800DF
:1005F6000038202121221C00180808F808081800D5
:100606000000203F2000000008F808000008F80855
:10061600001F202020201F000878880000C8380806
:10062600000007380E010000F80800F80008F8007E
:10063600033C0700073C0300081868808068180818
:1006460020302C03032C30200838C800C838080096
:100656000000203F2000000010080808C8380800E5
:100666002038262120201800000000FE0202020089
:100676000000007F40404000000C30C00000000039
:10068600000000010638C00000020202FE00000061
:10069600004040407F000000000004020202040007
:1006A6000000000000000000000000000000000044
:1006B600808080808080808000020204000000002C
:1006C6000000000000000000000080808080000024
:1006D6000019242222223F2008F800808000000012
:1006E600003F112020110E000000008080800000D5
:1006F600000E112020201100000000808088F800E4
:10070600000E112020103F20000080808080000015
:10071600001F222222221300008080F08888881879
:100726000020203F20200000000080808080800084
:10073600006B94949493600008F800808080000019
:10074600203F210000203F200080989800000000F4
:100756000020203F20200000000000809898000024
:1007660000C08080807F000008F800008080800044
:10077600203F24022D302000000808F80000000069
:100786000020203F20200000808080808080800024
:10079600203F20003F20003F8080008080800000B6
:1007A600203F210000203F20000080808080000044
:1007B600001F202020201F00808000808000000075
:1007C60080FFA12020110E000000008080808000A4
:1007D600000E112020A0FF80808080008080800095
:1007E60020203F21200001000000808080808000C2
:1007F6000033242424241900008080E08080000037
:100806000000001F20200000808000000080800083
:10081600001F202020103F208080800000808080E4
:1008260000010E3008060100808000800080808074
:100836000F300C030C300F00008080008080800099
:100846000020312E0E3120008080800000808080C4
:1008560080818E7018060100008080808080800074
:100866000021302C2221300000000000807C020292
:1008760000000000003F404000000000FF000000B4
:1008860000000000FF0000000002027C8000000063
:100896000040403F0000000000060101020204047F
:1008A60000000000000000000000000000000080C2
:1008B6008080808080808080808080C0C0C0C0C0F2
:1008C600C0C0C0C00000000000000000010101011E
:1008D60001C18181E19C8F4640404060E0C0C0007C
:1008E6000000000000000000000000000000000002
:1008F60000C7FF080808080808888000FFFF0300F3
:1009060000000000000000000000000000000000E1
:100916000003070101010101010101011F0F000090
:1009260000000000000000000000000000000000C1
:10093600000030F0600000000000000870F00000C9
:1009460040C0808000000000000000808080808021
:10095600C04CCCFF662622200060E020203FF890A5
:100966001800E1C10000000000000181C1703E1CBA
:1009760020407FFF8404040000381F484820100FE1
:100986001E3361C0F080000000020201000000007A
:10099600000000000001030306060C1C1C38383852
:1009A6003830101010111000000000000000000088
:1009B6000000F0F0600000000000000000000000F1
:1009C60018F0F02000000000000000000080C0F0D9
:1009D600980E878183C6868C1C000000FCFC0000F4
:1009E600003FFF00000000000000040201010001BA
:1009F600FF010010707F1F01800000001F3F0000F4
:100A06000000FF00000000000000000000000000E1
:100A1600070E0C0C0C0C0C0C0F0600000000020C50
:100A26003C3F1F0000000000000000000000000026
:100A36000080C04070302000000000000008F8F878
:100A46001000000000000000000040C0C0406262CC
:100A560021E1FF1610181800002063630600FFFF4F
:100A66000000000080800000000080402010080682
:100A76000301FF0103020404040404060202FFFF4B
:100A86000301010101010100000000000000000057
:100A960000061F0000000000000000000000073FE5
:100AA6000000000000000000000000000000000040
:100AB6000000000000000000000080808080808030
:100AC6000000000000000000000000000000000020
:100AD60002020202020303FFFF01010101010101FB
:100AE6000000000000000000000000000000000000
:100AF60000000000008080FFFF8080808080808072
:100B0600C0C0C0C0808000000000010303030303CF
:100B160003030101010101010101010100000000BF
:100B260000000000000000000000000000000000BF
:100B36000080F0E0600000000080F07C18000000FB
:100B460000000000000000000000000080C06038C7
:100B56001EF7010080C070180E0F09F8E80C0C048F
:100B660086868606020000000004020301000000DB
:100B760080FF000100000000000000FFFF416161EE
:100B8600616121200000000000000000000000005C
:100B9600070F0000000000000000007F1F0000009B
:100BA60000000000000000000000000000000080BF
:100BB600000000000000183870008080808080806F
:100BC600C08080000000000000000000101C0F0321
:100BD6000101111111D1F1591919980808000004E1
:100BE60007030303000000000000000000000000EF
:100BF600008C8C8E8FC5FCFCC44445434F0C000012
:100C0600000000000000000000000000101030107E
:100C16001010101818181F1F08080808080C0C0CCC
:080C26000C0C080000000000A6
:031E1F008121001E
:101C4100E4FDFCAB07AA06D3EB9400EA940040073D
:101C5100EB1B70F31A80F00DBD00010CED643C4CE0
:021C610070E130
:011C6300225E
:101CCB00E47822F2FEC292EF30E702D292EF25E0E7
:101CDB00FFC291A290E4334FFFD2910EEEB408E510
:011CEB0022D6
:101CEC00E4787EF2FEC292EF30E702D292EF25E06A
:101CFC00FFD291A290E4334FFFC2910EEEB408E5EF
:011D0C0022B4
:100003004E524620436865636B4661696C004E52ED
:0F0013004620436865636B4F6B00A5A5A5A5A5A7
:0E1E2200852F3443101001852A34431010011F
:101DAE001216A3EF7BFF60067A00790380047A0097
:091DBE007911E4FDFF12118722E6
:071ED800C294D295C29122D1
:1016A30078727C007DFE7BFF7A00791D7E007F05CA
:1016B300120CFE7BFE7A007972787B7405F27F3020
:1016C30012160C7BFE7A007972787B7405F27F1018
:1016D3001216F0E4FF74722FF8E2B4A5050FEFB40D
:0C16E30005F3EF640560037F01227F0027
:0116EF0022D8
:041D49007823EDF21C
:101D4D00C295121CEC7824EFF218E2FF121CECD2B3
:051D5D00957824E2FF6F
:011D6200225E
:0C1E6F00C295121CEC7FFF121CECD295F7
:011E7B002244
:0A16F0007878EBF208EAF208E9F25C
:1016FA00C295121CEC787CEFF2E408F2787BE2FFE8
:10170A00787DE2C39F50227FFF121CEC7878E2FBBF
:10171A0008E2FA08E2F9787DE2F582758300EF12B1
:0F172A000D6A787DE204F280D3D295787CE2FFDD
:01173900228D
:0D15FF007BFE7A00792A787B7405F27F2A42
:0A160C007878EBF208EAF208E9F240
:10161600C295121CEC787CEFF2E408F2787BE2FFCC
:10162600787DE2C39F501F7878E2FB0808E2F92430
:1016360001F218E2FA3400F2120D24FF121CEC78C3
:0C1646007DE204F280D6D295787CE2FFB1
:011652002275
:1019C900C294787B7414F27FA012160CD2947F070C
:1019D900121E6F7825EFF2FD7F27121D497825E247
:1019E90030E40A7DFF7FE1121D497F10227825E24C
:0819F90030E5037F20227FFF8F
:011A010022C2
:0A18D1007826EBF208EAF208E9F2CB
:1018DB007F07121E6F7829EFF2FD7F27121D4978C3
:1018EB0029E230E61E7826E2FB08E2FA08E2F978F4
:1018FB007B7414F27F611216F07DFF7FE2121D499B
:05190B007F00227F01B6
:0119100022B4
:101A3900C2941215FF7D017F21121D497D017F226C
:101A4900121D497D287F25121D497D147F31121DE4
:101A5900497D0F7F26121D497D0F7F20121D49D216
:021A69009422C5
:10184D00C2947BFE7A00792F787B7405F27F30127B
:10185D00160C1215FF7D017F21121D497D017F227E
:10186D00121D497D1A7F24121D497D287F25121DC9
:10187D00497D0F7F26121D497D0E7F20121D49D2F5
:02188D009422A3
:10195000E47834F27834E2FBC43354E0FFE4FD125F
:10196000152D7834E204F2E2C3940440E77834742D
:1019700004F27834E2FBC43354E02410FF7D0412F7
:0D198000152D7834E204F2E2C3940740E52F
:01198D002237
:0E1AFB00ED24B0FF121B097F01121B097F10A2
:101B0900C2A6E4FEC2A5EFA806088002C333D8FC2A
:101B190030E704D2A48002C2A4D2A50EEEB408E430
:011B29002299
:0D1B2A0074AE2BF58274083AF583E493FF46
:101B3700D2A6E4FEC2A5EFA806088002C333D8FCEC
:101B470030E704D2A48002C2A4D2A50EEEB408E402
:011B5700226B
:071BD300AA05E2FF08E2FD94
:101BDA00AC07ED24B0FF121B09EC54F0C4540F44B7
:0E1BEA0010FF121B09EC540F4401FF021B09EF
:101DDE00E4FD121AFBE4FC7FFF121B370CECB480FF
:061DEE00F60DEDB408EC57
:011DF40022CC
:101DF500E4FD121AFBE4FCE4FF121B370CECB48083
:061E0500F60DEDB408EC3F
:011E0B0022B4
:1010E800C2A3D2A5C2A77F1E7E00121C41D2A77F31
:1010F800AE121B09E4FF121B047F40121B097F81FB
:10110800121B097FCF121B097FA1121B097FC8126E
:101118001B097FA6121B097FA8121B097F3F121B00
:10112800097FD3121B09E4FF121B097FD5121B0983
:101138007F80121B097FD9121B097FF1121B097FBF
:10114800DA121B097F12121B097FDB121B097F4071
:10115800121B097F20121B097F02121B097F8D12A7
:101168001B097F14121B097FA4121B097FA6121BDF
:0F117800097FAF121B09121DF5E4FDFF021BDA00
:1014B8007835EFF208EDF208EBF208EAF208E9F203
:1014C800E408F208F27837E2FB08E2FA08E2F97871
:1014D8003BE2F582758300120D3D604824E0783ABE
:1014E800F27835E2D3947E4006E4F208E204F2781A
:1014F80035121BD5E4FD783AE275F006A42496F57A
:1015080082E5F03400F583E5822DF582E435831217
:101518001B320DEDB406DF7835E22406F2783BE2A3
:0415280004F280A1A8
:01152C00229C
:071C6400C3EF9B14FD7F0A92
:061C6B00783CEFF2A90530
:101C71007F017E00AD0119ED600B783CE2FD7C0037
:051C8100120D8C80EF44
:011C8600223B
:0D121D00783DEFF208EDF208EAF208EBF27E
:10122A00E4FB7841E2FFEBC39F5076121C64783FDF
:10123A00E2FC08E2FDCFCDCFCECCCE120D9E7C00D3
:10124A007D0A120D9E783D121BD3E4FD75F010EA5B
:10125A00A42DF582E435F0F583E58224BEF582E516
:10126A00833403121B320DEDB408E1783DE2FF0826
:10127A00E204FD121BDAE4FD75F010EAA42DF582F2
:10128A00E435F0F583E58224C6F582E5833403125A
:10129A001B320DEDB408E1783DE22408F20B02128C
:0112AA002C17
:0112AB002220
:0D159D007842EFF208EDF208EAF208EBF2F6
:1015AA00E4FB7846E2FFEBC39F5049121C6478447F
:1015BA00E2FC08E2FDCFCDCFCECCCE120DF37C00FB
:1015CA007D0A120DF37842121BD3E4FD75F006EA88
:1015DA00A424F6F582E5F03400F583E5822DF58240
:1015EA00E43583121B320DEDB406E17842E224069B
:0415FA00F20B80AEC2
:0115FE0022CA
:101187007872EFF208EDF208EBF208EAF208E9F2FA
:10119700E408F208F27874E2FB08E2FA08E2F97868
:1011A70078E2F582758300120D3D606924E0787757
:1011B700F27872121BD5E4FD7877E275F010A42D52
:1011C700F582E435F0F583E58224BEF582E58334C4
:1011D70002121B320DEDB408DF7872E2FF08E20459
:1011E700FD121BDAE4FD7877E275F010A42DF58285
:1011F700E435F0F583E58224C6F582E583340212EF
:101207001B320DEDB408DF7872E22408F27878E239
:0512170004F202119C2D
:01121C0022AF
:06152D007847EFF2A9056A
:10153300EB75F080A4FBAAF0E2FF121BDAE4FD12C4
:101543001B2A0BBB00010A0DEDB420F37847E2FF21
:10155300E904FD121BDAE4FD121B2A0BBB00010A8E
:101563000DEDB420F37847E2FFE92402FD121BDA04
:10157300E4FD121B2A0BBB00010A0DEDB420F37826
:1015830047E2FFE92403FD121BDAE4FD121B2A0BD9
:09159300BB00010A0DEDB420F3C8
:01159C00222C
:0E100C007849EBF208EAF208E9F27848EFF2D0
:10101A00C374809FFFE49400C313EF13784FF2E484
:10102A00784DF2784DE2FFC3940840030210E7EFCF
:10103A00121AFCE4784EF2784FE2FD18E2C39D5092
:10104A0015784CE260047FFF8002E4FF121B3778B8
:10105A004EE204F280E1784EEDF2784FE2FF7848F2
:10106A00E22FFFE433FE784EE2C39FEE6480F87409
:10107A0080985039784CE278496014E2FB0808E21B
:10108A00F92401F218E2FA3400F2120D248013E274
:10109A00FB0808E2F92401F218E2FA3400F2120D10
:1010AA0024F4FF121B37784EE204F280AD784FE247
:1010BA00FF7848E22F784EF2784EE2C394805015BA
:1010CA00784CE260047FFF8002E4FF121B37784EFF
:0D10DA00E204F280E3784DE204F202102DF2
:0110E70022E6
:0B1E8700202000000000000000000010
:101B5800D2AF759850758780758920AB07AA06EAB9
:101B68003395E0F9F8E4FF7EE1FDFC121809EFF483
:0A1B780004F58BF58DD2ACD28E225D
:0300230002188F31
:10188F00C0E0C0F0C083C082C0D075D000C000C01F
:0D189F0001C002C003C004C005C006C007A0
:0A18AC00309807C298AF99121EC8C9
:1018B600D007D006D005D004D003D002D001D00086
:0B18C600D0D0D082D083D0F0D0E03230
:081EC8008F993099FDC29922A7
:101E0C00120D24FF600C121EC8740129F9E43AFA71
:031E1C0080EE2233
:070EF7007850EEF208EFF263
:100EFE00087C007DFE7BFF7A1E798A7E007F0812B9
:100F0E000CFE7850E2FE08E2FFC3EE64809480503F
:100F1E001208742DF2C3E49FFFE49E7850F208EF9E
:100F2E00F2800578527420F27850E2FE08E2FFEE6D
:100F3E003395E0FDFC7BA07A8679017800121809C2
:100F4E00EF24307853F27850E2FE08E2FFEE33954C
:100F5E00E0FDFC7BA07A8679017800121809AC00BE
:100F6E00AD01AE02AF03E47B107A27F9F81218092F
:100F7E00EF24307854F27850E2FA08E2FB7C277DB9
:100F8E0010FFAE02120DF37E037FE8CFCDCFCECC95
:100F9E00CE120DF3EF24307855F27C037DE8AF03CB
:100FAE00AE02120DF37E007F64CFCDCFCECCCE122B
:100FBE000DF3EF24307856F27850E2FA08E2FB7C1B
:100FCE00007D64FFAE02120DF37E007F0ACFCDCFFF
:100FDE00CECCCE120DF3EF24307857F27C007D0A82
:100FEE00AF03AE02120DF3ED24307858F27BFE7A89
:0E0FFE00007952121E0C0B7A1E7987021E0C0F
:051EDF00D2A0D2A122F7
:0B1E9200D2A1D2A000C2A100C2A02279
:0B1E9D00C2A0C2A100D2A0D2A100226E
:0D1B8200AF04121CA9121B8FAF03121CA987
:101B8F00E4FFD2A100D2A00030A10D0FEFD394FA41
:0C1B9F0040F6121E9D7F0122C2A07F00B4
:011BAB002217
:0B1EA800C2A0C2A100D2A000C2A02274
:0B1EB300C2A0D2A100D2A000C2A02259
:101CA900C2A0E4FEEF5480C4131313540124FF921D
:101CB900A1EF25E0FF00D2A000C2A0000EEEB408FB
:011CC900E337
:011CCA0022F7
:101C1D00E4FEFDC2A000D2A0EE25E0FE30A1010E33
:101C2D00000DEDB408EDEF7005121EB38003121E0A
:031C3D00A8AF0647
:011C40002281
:101E3100AC05121E92121CA9121B8F121B82021ECC
:011E41009D03
:041D0D00AC07AB056F
:101D1100E4FF121E92121B82121E92EC04FF121C8F
:0C1D2100A9121B8FE4FF121C1D121E9D56
:011D2D002293
:101BAC0036303530205465737420506173732100C6
:101BBC0049443A004D5055363035302054657374D5
:071BCC00204661696C210055
:10178000E4785AF27D757FD0121D0D785AEFF2641D
:10179000687BFF70067A1B79AC80057A1B79C0E400
:1017A000FDFF1211877BFF7A1B79BC7D02E4FF12DB
:1017B0001187785AE2FB7A0078417403F27D027F48
:0417C0001812121DCC
:0117C4002202
:101A0200121EDFE4FB7D6B7FD0121E317B077D1936
:101A12007FD0121E317B067D1A7FD0121E317B18B9
:101A22007D1B7FD0121E317B097D1C7FD0121E319F
:071A32007F0A7E00021C4147
:10173A00121E927FD0121CA9121B8F7F3B121CA96A
:10174A00121B8F121E927FD1121CA9121B8FE478D2
:10175A005BF27F01121C1D785BE22414F8EFF27829
:10176A005BE204F2E2C3940D40E8E4FF121C1D7828
:06177A0021EFF2021E9DAA
:101D2E00E580F460137F057E00121C412080037F46
:0B1D3E0001222081037F02227F00228F
:101BF800466C617368205465737420506173730078
:101C0800466C6173682054657374204661696C0082
:051C18004D49443A00B3
:1017C50012198E785CEEF208EFF2BEEF0BBF160829
:1017D5007BFF7A1B79F880067BFF7A1C7908E4FD8C
:1017E500FF1211877BFF7A1C79187D02E4FF121125
:1017F50087785CE2FA08E2FB78417405F27D027FA6
:041805002002121D8E
:10198E00C2967F90121CECE4FF121CECE4FF121CBA
:10199E00ECE4FF121CEC7FFF121CECEFF8E4795F15
:1019AE00F3E819F37FFF121CEC785EE2FE08E24FBB
:0A19BE00FF18EEF2FE08EFF2D296D9
:0119C80022FC
:1013BD007860EBF208EAF208E9F208ECF208EDF2D7
:1013CD00121EBEC2967F02121CEC7863E2FE08E28A
:1013DD007810CEC313CE13D8F9FF121CEC7863E24C
:1013ED00FF121CEC786308E2FF121CECE47867F244
:1013FD0008F27865E2FE08E2FF08E2FC08E2FDC3B0
:10140D009FEE6480F8EC64809850227860E2FB08CF
:10141D00E2FA08E2F98D828C83120D3DFF121CEC6D
:10142D007868E22401F218E23400F280C5D2960207
:02143D001ED0BF
:0A1EBE00C2967F06121CECD2962299
:081ED000121E52EF20E0F9227E
:0F1E5200E4C2967F05121CEC7FFF121CECD296A7
:011E6100225E
:101338007869EBF208EAF208E9F208ECF208EDF253
:10134800C2967F03121CEC786CE2FE08E27810CE9D
:10135800C313CE13D8F9FF121CEC786CE2FF121CF1
:10136800EC786C08E2FF121CECE47870F208F27872
:101378006EE2FE08E2FFC37871E29FEE6480F5F04A
:1013880018E2648095F0502A7FFF121CEC7869E21D
:10139800FB08E2FA08E2F97870E2FC08E2F5828CD0
:1013A80083EF120D6A7871E22401F218E23400F238
:0413B80080BDD2968C
:0113BC00220E
:030000000212AC3D
:0C12AC00787FE4F6D8FD7581200212F373
:100C2E00E709F608DFFA8046E709F208DFFA803EA8
:100C3E0088828C83E709F0A3DFFA8032E309F60895
:100C4E00DFFA8078E309F208DFFA807088828C83FD
:100C5E00E309F0A3DFFA806489828A83E0A3F608B1
:100C6E00DFFA805889828A83E0A3F208DFFA804C8B
:100C7E0080D280FA80C680D4806980F28033801062
:100C8E0080A680EA809A80A880DA80E280CA8033CB
:100C9E0089828A83ECFAE493A3C8C582C8CCC58343
:100CAE00CCF0A3C8C582C8CCC583CCDFE9DEE78013
:100CBE000D89828A83E493A3F608DFF9ECFAA9F092
:100CCE00EDFB2289828A83ECFAE0A3C8C582C8CCE8
:100CDE00C583CCF0A3C8C582C8CCC583CCDFEADE01
:100CEE00E880DB89828A83E493A3F208DFF980CC63
:100CFE0088F0EF60010E4E60C388F0ED2402B4045C
:100D0E000050B9F582EB2402B4040050AF23234502
:060D1E008223900C7E739D
:100D2400BB010689828A83E0225002E722BBFE02CD
:090D3400E32289828A83E4932200
:100D3D00BB010CE58229F582E5833AF583E022506B
:100D4D0006E92582F8E622BBFE06E92582F8E222B5
:0D0D5D00E58229F582E5833AF583E49322CF
:100D6A00F8BB010DE58229F582E5833AF583E8F0BF
:100D7A00225006E92582C8F622BBFE05E92582C86B
:020D8A00F22253
:100D8C00EF8DF0A4A8F0CF8CF0A428CE8DF0A42E7B
:020D9C00FE2235
:100D9E00BC000BBE0029EF8DF084FFADF022E4CC39
:100DAE00F875F008EF2FFFEE33FEEC33FCEE9DEC02
:100DBE00984005FCEE9DFE0FD5F0E9E4CEFD22ED48
:100DCE00F8F5F0EE8420D21CFEADF075F008EF2F92
:100DDE00FFED33FD4007985006D5F0F222C398FD83
:050DEE000FD5F0EA2220
:100DF300C2D5EC30E709B2D5E4C39DFDE49CFCEE1B
:100E030030E715B2D5E4C39FFFE49EFE120D9EC3E7
:100E1300E49DFDE49CFC8003120D9E30D507C3E4E2
:060E23009FFFE49EFE2289
:10180900C2D5E830E70FB2D5E4C39BFBE49AFAE40A
:1018190099F9E498F8EC30E717B2D512183F120E8F
:1018290065E4C39BFBE49AFAE499F9E498F8800328
:10183900120E6530D50DE4C39FFFE49EFEE49DFDC5
:04184900E49CFC22FD
:1012B800021E7CE493A3F8E493A34003F68001F2B2
:1012C80008DFF48029E493A3F85407240CC8C33337
:1012D800C4540F4420C8834004F456800146F6DF06
:1012E800E4800B0102040810204080901E1FE47E59
:1012F800019360BCA3FF543F30E509541FFEE493FB
:10130800A360010ECF54C025E060A840B8E493A3C1
:10131800FAE493A3F8E493A3C8C582C8CAC583CAEC
:10132800F0A3C8C582C8CAC583CADFE9DEE780BEA4
:011E300000B1
:100E290075F008758200EF2FFFEE33FECD33CDCC80
:100E390033CCC58233C5829BED9AEC99E582984003
:100E49000CF582EE9BFEED9AFDEC99FC0FD5F0D6E0
:100E5900E4CEFBE4CDFAE4CCF9A88222B800C1B90A
:100E69000059BA002DEC8BF084CFCECDFCE5F0CB48
:100E7900F97818EF2FFFEE33FEED33FDEC33FCEB81
:100E890033FB10D703994004EB99FB0FD8E5E4F93C
:100E9900FA227818EF2FFFEE33FEED33FDEC33FC29
:100EA900C933C910D7059BE99A4007EC9BFCE99A1D
:100EB900F90FD8E0E4C9FAE4CCFB2275F010EF2F62
:100EC900FFEE33FEED33FDCC33CCC833C810D70762
:100ED9009BEC9AE899400AED9BFDEC9AFCE899F89D
:0E0EE9000FD5F0DAE4CDFBE4CCFAE4C8F92230
:00000001FF
