:10000300081020301018080C0424080824040C08D5
:040013001810302071
:0700F700AF822FF8E6F5903F
:1000FE00E4FFFEE4FDFC0DBD00010CED64644C70EC
:0C010E00F50FBF00010EEF64024E70E719
:01011A0022C2
:0F011B00438911758DFE758B33D28E75A88A229C
:1000AA00E4F582F583E4FAFBE4F583F58274101231
:1000BA0000F7A3E5826408458370F20BBB00010ACE
:1000CA00E4B503E4EAB404E0E4FAFBC3EA64809426
:1000DA008450D2E4F583F58274081200F7A3E5820E
:0D00EA006408458370F20BBB00010A80DE44
:03001B0002012AB5
:09012A00758DFE758B330518324A
:0300000002001EDD
:0C001E00787FE4F6D8FD758118020065BB
:10002A000200AAE493A3F8E493A34003F68001F242
:10003A0008DFF48029E493A3F85407240CC8C333D7
:10004A00C4540F4420C8834004F456800146F6DFA6
:10005A00E4800B0102040810204080900003E47E33
:10006A00019360BCA3FF543F30E509541FFEE4939B
:10007A00A360010ECF54C025E060A840B8E493A362
:10008A00FAE493A3F8E493A3C8C582C8CAC583CA8D
:10009A00F0A3C8C582C8CAC583CADFE9DEE780BE45
:0100170000E8
:00000001FF
