:10006A00D2B27508AA85089075A88175880180FEA4
:03000300020006F2
:10000600C0E0C0F0C083C082C0D075D000C2A87F57
:100016000F12005830B204D2A8801220B2077F0116
:1000260012005880F66308FF850890D2A8D0D0D079
:0800360082D083D0F0D0E0324B
:10005800AD071FED600BE4FEEEC3940D50F20E8069
:01006800F7A0
:010069002274
:10003E00EF1FAA0670011E4A600FE4FDEDC394FA8D
:09004E0050EE000000000D80F3EB
:010057002286
:0300000002007A81
:0C007A00787FE4F6D8FD75810802006A6A
:00000001FF
