:1015BE004265796F6E6461792073747564696F002A
:1015CE00000000000000000000000000000000000D
:0215DE0000000B
:10136B00783B7C007DFE7BFF7A1579BE7E007F107B
:10137B00120CC6784B7C007DFE7BFF7A1579CE7EF6
:10138B00007F12120CC6785D7410F2C291120ECD52
:10139B007BFE7A00794B785DE2FF7863E4F208EF2D
:1013AB00F27D3E7CFE12111D7FE87E031215787BC9
:0D13BB00FE7A00794BE4FDFF120F6C80FEFE
:10000E00FFC399BDBD99C3FFFFF787F7F7F7F7FF5A
:10001E00FFC3BDF9C79F81FFFFC3BDE3FDBDC3FF96
:10002E00FFF3CBBB01FBFBFFFFC1DF83BDBDC3FFF6
:10003E00FFC3BD83BDBDC3FFFF81FBF7EFEFDFFF46
:10004E00FFC3BDC3BDBDC3FFFFC3BDBDC1F983FFAC
:10005E000000000000000000002F0000000007005C
:10006E00070000147F147F1400242A7F2A120062D6
:10007E006408132300364955225000000503000082
:10008E0000001C224100000041221C000014083E0A
:10009E0008140008083E0808000000A060000008D0
:1000AE000808080800006060000000201008040224
:1000BE00003E5149453E0000427F400000426151E2
:1000CE004946002141454B31001814127F1000277C
:1000DE0045454539003C4A4949300001710905033F
:1000EE0000364949493600064949291E0000363670
:1000FE0000000000563600000008142241000014D3
:10010E0014141414000041221408000201510906AF
:10011E0000324959513E007C1211127C007F494930
:10012E004936003E41414122007F4141221C007F61
:10013E0049494941007F09090901003E4149497A6F
:10014E00007F0808087F0000417F410000204041E9
:10015E003F01007F08142241007F40404040007F55
:10016E00020C027F007F0408107F003E4141413E99
:10017E00007F09090906003E4151215E007F0919E1
:10018E0029460046494949310001017F0101003FDE
:10019E004040403F001F2040201F003F4038403F5E
:1001AE0000631408146300070870080700615149C2
:1001BE00454300007F41410000552A552A55000055
:1001CE0041417F00000402010204004040404040D3
:1001DE00000001020400002054545478007F48446B
:1001EE00443800384444442000384444487F0038A2
:1001FE005454541800087E0901020018A4A4A47CCB
:10020E00007F080404780000447D40000040808494
:10021E007D00007F102844000000417F4000007CDC
:10022E0004180478007C08040478003844444438E8
:10023E0000FC242424180018242418FC007C080434
:10024E00040800485454542000043F444020003C0D
:10025E004040207C001C2040201C003C4030403C94
:10026E00004428102844001CA0A0A07C0044645424
:10027E004C44141414141414000000000000000068
:10028E000000000000000000000000F80000000068
:10029E00000000333000000000100C06100C0600A9
:1002AE00000000000000000040C07840C078400010
:1002BE00043F04043F040400007088FC0830000072
:1002CE00001820FF211E0000F008F000E0180000CA
:1002DE0000211C031E211E0000F008887000000083
:1002EE001E2123241927211010160E0000000000D5
:1002FE000000000000000000000000E018040200F2
:10030E00000000071820400000020418E000000062
:10031E000040201807000000404080F08040400060
:10032E000202010F01020200000000F000000000B6
:10033E000101011F0101010000000000000000008A
:10034E0080B07000000000000000000000000000FF
:10035E000001010101010101000000000000000088
:10036E000030300000000000000000008060180423
:10037E00006018060100000000E010080810E00000
:10038E00000F102020100F00001010F800000000C9
:10039E000020203F20200000007008080888700010
:1003AE000030282422213000003008888848300090
:1003BE000018202020110E000000C02010F80000B0
:1003CE0000070424243F240000F808888808080049
:1003DE000019212020110E0000E01088881800005E
:1003EE00000F112020110E0000380808C838080030
:1003FE000000003F000000000070880808887000B0
:10040E00001C222121221C0000E010080810E00030
:10041E000000312222110F00000000C0C0000000B9
:10042E0000000030300000000000008000000000DE
:10043E0000008060000000000000804020100800D6
:10044E00000102040810200040404040404040009F
:10045E00040404040404040000081020408000007A
:10046E000020100804020100007048080808F0007F
:10047E000000003036010000C030C828E810E0004F
:10048E000718272423140B000000C038E0000000DA
:10049E00203C23020227382008F888888870000044
:1004AE00203F202020110E00C03008080808380018
:1004BE00071820202010080008F808080810E0008F
:1004CE00203F202020100F0008F88888E808100030
:1004DE00203F20202320180008F88888E808100004
:1004EE00203F200003000000C0300808083800003C
:1004FE0007182020221E020008F808000008F8083D
:10050E00203F210101213F20000808F808080000C3
:10051E000020203F2020000000000808F8080800F6
:10052E00C08080807F00000008F888C0281808006E
:10053E00203F20012638200008F8080000000000A7
:10054E00203F20202020300008F8F800F8F808009E
:10055E00203F003F003F200008F830C00008F80898
:10056E00203F200007183F00E01008080810E000A8
:10057E000F10202020100F0008F808080808F000BF
:10058E00203F210101010000E01008080810E000E2
:10059E000F18242438504F0008F888888888700077
:1005AE00203F2000030C3020007088080808380017
:1005BE000038202121221C00180808F8080818000D
:1005CE000000203F2000000008F808000008F8088E
:1005DE00001F202020201F000878880000C838083F
:1005EE00000007380E010000F80800F80008F800B7
:1005FE00033C0700073C0300081868808068180851
:10060E0020302C03032C30200838C800C8380800CE
:10061E000000203F2000000010080808C83808001D
:10062E002038262120201800000000FE02020200C1
:10063E000000007F40404000000C30C00000000071
:10064E00000000010638C00000020202FE00000099
:10065E00004040407F00000000000402020204003F
:10066E00000000000000000000000000000000007C
:10067E008080808080808080000202040000000064
:10068E00000000000000000000008080808000005C
:10069E000019242222223F2008F80080800000004A
:1006AE00003F112020110E0000000080808000000D
:1006BE00000E112020201100000000808088F8001C
:1006CE00000E112020103F2000008080808000004E
:1006DE00001F222222221300008080F088888818B2
:1006EE000020203F202000000000808080808000BD
:1006FE00006B94949493600008F800808080000052
:10070E00203F210000203F2000809898000000002C
:10071E000020203F2020000000000080989800005C
:10072E0000C08080807F000008F80000808080007C
:10073E00203F24022D302000000808F800000000A1
:10074E000020203F2020000080808080808080005C
:10075E00203F20003F20003F8080008080800000EE
:10076E00203F210000203F2000008080808000007C
:10077E00001F202020201F008080008080000000AD
:10078E0080FFA12020110E000000008080808000DC
:10079E00000E112020A0FF808080800080808000CD
:1007AE0020203F21200001000000808080808000FA
:1007BE000033242424241900008080E0808000006F
:1007CE000000001F202000008080000000808000BC
:1007DE00001F202020103F2080808000008080801D
:1007EE0000010E30080601008080008000808080AD
:1007FE000F300C030C300F000080800080808000D2
:10080E000020312E0E3120008080800000808080FC
:10081E0080818E70180601000080808080808000AC
:10082E000021302C2221300000000000807C0202CA
:10083E0000000000003F404000000000FF000000EC
:10084E0000000000FF0000000002027C800000009B
:10085E000040403F000000000006010102020404B7
:10086E0000000000000000000000000000000080FA
:10087E008080808080808080808080C0C0C0C0C02A
:10088E00C0C0C0C000000000000000000101010156
:10089E0001C18181E19C8F4640404060E0C0C000B4
:1008AE00000000000000000000000000000000003A
:1008BE0000C7FF080808080808888000FFFF03002B
:1008CE00000000000000000000000000000000001A
:1008DE000003070101010101010101011F0F0000C9
:1008EE0000000000000000000000000000000000FA
:1008FE00000030F0600000000000000870F0000002
:10090E0040C0808000000000000000808080808059
:10091E00C04CCCFF662622200060E020203FF890DD
:10092E001800E1C10000000000000181C1703E1CF2
:10093E0020407FFF8404040000381F484820100F19
:10094E001E3361C0F08000000002020100000000B2
:10095E00000000000001030306060C1C1C3838388A
:10096E0038301010101110000000000000000000C0
:10097E000000F0F060000000000000000000000029
:10098E0018F0F02000000000000000000080C0F011
:10099E00980E878183C6868C1C000000FCFC00002C
:1009AE00003FFF00000000000000040201010001F2
:1009BE00FF010010707F1F01800000001F3F00002C
:1009CE000000FF000000000000000000000000001A
:1009DE00070E0C0C0C0C0C0C0F0600000000020C89
:1009EE003C3F1F000000000000000000000000005F
:1009FE000080C04070302000000000000008F8F8B1
:100A0E001000000000000000000040C0C040626204
:100A1E0021E1FF1610181800002063630600FFFF87
:100A2E0000000000808000000000804020100806BA
:100A3E000301FF0103020404040404060202FFFF83
:100A4E00030101010101010000000000000000008F
:100A5E0000061F0000000000000000000000073F1D
:100A6E000000000000000000000000000000000078
:100A7E000000000000000000000080808080808068
:100A8E000000000000000000000000000000000058
:100A9E0002020202020303FFFF0101010101010133
:100AAE000000000000000000000000000000000038
:100ABE0000000000008080FFFF80808080808080AA
:100ACE00C0C0C0C080800000000001030303030308
:100ADE0003030101010101010101010100000000F8
:100AEE0000000000000000000000000000000000F8
:100AFE000080F0E0600000000080F07C1800000034
:100B0E0000000000000000000000000080C06038FF
:100B1E001EF7010080C070180E0F09F8E80C0C04C7
:100B2E008686860602000000000402030100000013
:100B3E0080FF000100000000000000FFFF41616126
:100B4E006161212000000000000000000000000094
:100B5E00070F0000000000000000007F1F000000D3
:100B6E0000000000000000000000000000000080F7
:100B7E0000000000000018387000808080808080A7
:100B8E00C08080000000000000000000101C0F0359
:100B9E000101111111D1F159191998080800000419
:100BAE000703030300000000000000000000000027
:100BBE00008C8C8E8FC5FCFCC44445434F0C00004A
:100BCE0000000000000000000000000010103010B7
:100BDE001010101818181F1F08080808080C0C0C05
:080BEE000C0C080000000000DF
:0316B500810D00A4
:10157800E4FDFCAB07AA06D3EB9400EA940040070D
:10158800EB1B70F31A80F00DBD00010CED643C4CB0
:0215980070E100
:01159A00222E
:10145800E4780EF2780EE2FBC43354E0FFE4FD12A8
:101468001299780EE204F2E2C3940440E7780E740D
:1014780004F2780EE2FBC43354E02410FF7D04121A
:0D1488001299780EE204F2E2C3940740E5E9
:011495002234
:0E14D100ED24B0FF1214DF7F011214DF7F1034
:1014DF00C2A6E4FEC2A5EFA806088002C333D8FC5B
:1014EF0030E704D2A48002C2A4D2A50EEEB408E461
:0114FF0022CA
:0D15000074762BF58274083AF583E493FFAE
:10150D00D2A6E4FEC2A5EFA806088002C333D8FC1C
:10151D0030E704D2A48002C2A4D2A50EEEB408E432
:01152D00229B
:07152E00AA05E2FF08E2FD3F
:10153500AC07ED24B0FF1214DFEC54F0C4540F4493
:0E15450010FF1214DFEC540F4401FF0214DFFC
:10165D00E4FD1214D1E4FC7FFF12150D0CECB480E7
:06166D00F60DEDB408ECDF
:011673002254
:10167400E4FD1214D1E4FCE4FF12150D0CECB4806B
:06168400F60DEDB408ECC8
:01168A00223D
:100ECD00C2A3D2A5C2A77F1E7E00121578D2A77F1E
:100EDD00AE1214DFE4FF1214DA7F401214DF7F81AB
:100EED001214DF7FCF1214DF7FA11214DF7FC8121F
:100EFD0014DF7FA61214DF7FA81214DF7F3F1214B8
:100F0D00DF7FD31214DFE4FF1214DF7FD51214DF5D
:100F1D007F801214DF7FD91214DF7FF11214DF7F6F
:100F2D00DA1214DF7F121214DF7FDB1214DF7F4021
:100F3D001214DF7F201214DF7F021214DF7F8D1257
:100F4D0014DF7F141214DF7FA41214DF7FA6121496
:0F0F5D00DF7FAF1214DF121674E4FDFF021535AB
:10122400780FEFF208EDF208EBF208EAF208E9F2BF
:10123400E408F208F27811E2FB08E2FA08E2F9782D
:1012440015E2F582758300120D05604824E07814D8
:10125400F2780FE2D3947E4006E4F208E204F278D6
:101264000F121530E4FD7814E275F006A4245EF53F
:1012740082E5F03400F583E5822DF582E4358312AE
:1012840015080DEDB406DF780FE22406F27815E2B6
:0412940004F280A13F
:011298002233
:07159B00C3EF9B14FD7F0A62
:0615A2007816EFF2A90526
:1015A8007F017E00AD0119ED600B7816E2FD7C002D
:0515B800120D5480EF4C
:0115BD00220B
:0D1002007817EFF208EDF208EAF208EBF2C1
:10100F00E4FB781BE2FFEBC39F507612159B781918
:10101F00E2FC08E2FDCFCDCFCECCCE120D667C0028
:10102F007D0A120D66781712152EE4FD75F010EA81
:10103F00A42DF582E435F0F583E5822486F582E56B
:10104F008334031215080DEDB408E17817E2FF0899
:10105F00E204FD121535E4FD75F010EAA42DF582BA
:10106F00E435F0F583E582248EF582E583340312AF
:10107F0015080DEDB408E17817E22408F20B021001
:01108F00114F
:01109000223D
:0D130900781CEFF208EDF208EAF208EBF2B2
:10131600E4FB7820E2FFEBC39F504912159B781E31
:10132600E2FC08E2FDCFCDCFCECCCE120DBB7C00C9
:101336007D0A120DBB781C12152EE4FD75F006EA27
:10134600A424BEF582E5F03400F583E5822DF5820E
:10135600E435831215080DEDB406E1781CE2240687
:04136600F20B80AE58
:01136A002260
:100F6C00785EEFF208EDF208EBF208EAF208E9F22B
:100F7C00E408F208F27860E2FB08E2FA08E2F97899
:100F8C0064E2F582758300120D05606924E07863D4
:100F9C00F2785E121530E4FD7863E275F010A42D42
:100FAC00F582E435F0F583E5822486F582E5833419
:100FBC00021215080DEDB408DF785EE2FF08E204BA
:100FCC00FD121535E4FD7863E275F010A42DF58261
:100FDC00E435F0F583E582248EF582E58334021244
:100FEC0015080DEDB408DF785EE22408F27864E2AF
:050FFC0004F2020F8168
:0110010022CC
:061299007821EFF2A90527
:10129F00EB75F080A4FBAAF0E2FF121535E4FD1206
:1012AF0015000BBB00010A0DEDB420F37821E2FF0E
:1012BF00E904FD121535E4FD1215000BBB00010A00
:1012CF000DEDB420F37821E2FFE92402FD1215356C
:1012DF00E4FD1215000BBB00010A0DEDB420F378ED
:1012EF0021E2FFE92403FD121535E4FD1215000B71
:0912FF00BB00010A0DEDB420F35F
:0113080022C2
:0E0DF1007823EBF208EAF208E9F27822EFF23A
:100DFF00C374809FFFE49400C313EF137829F2E4C8
:100E0F007827F27827E2FFC394084003020ECCEF55
:100E1F001214D2E47828F27829E2FD18E2C39D502B
:100E2F00157826E260047FFF8002E4FF12150D782B
:100E3F0028E204F280E17828EDF27829E2FF7822A7
:100E4F00E22FFFE433FE7828E2C39FEE6480F8744C
:100E5F00809850397826E278236014E2FB0808E284
:100E6F00F92401F218E2FA3400F2120CEC8013E2CA
:100E7F00FB0808E2F92401F218E2FA3400F2120C2E
:100E8F00ECF4FF12150D7828E204F280AD7829E218
:100E9F00FF7822E22F7828F27828E2C39480501549
:100EAF007826E260047FFF8002E4FF12150D782898
:0D0EBF00E204F280E37827E204F2020E1252
:010ECC002203
:10155300466C617368205465737420506173730023
:10156300466C6173682054657374204661696C002E
:051573004D49443A005F
:10141400121496782AEEF208EFF2BEEF0BBF16080C
:101424007BFF7A15795380067BFF7A157963E4FD97
:10143400FF120F6C7BFF7A1579737D02E4FF120FA4
:101444006C782AE2FA08E2FB781B7405F27D027FCD
:041454002002100260
:10149600C2967F90121601E4FF121601E4FF12169F
:1014A60001E4FF1216017FFF121601EFF8E4792D11
:1014B600F3E819F37FFF121601782CE2FE08E24FDB
:0A14C600FF18EEF2FE08EFF2D296D6
:0114D00022F9
:1011A200782EEBF208EAF208E9F208ECF208EDF226
:1011B2001216ABC2967F021216017831E2FE08E2E5
:1011C2007810CEC313CE13D8F9FF1216017831E28C
:1011D200FF121601783108E2FF121601E47835F2A7
:1011E20008F27833E2FE08E2FF08E2FC08E2FDC3FF
:1011F2009FEE6480F8EC6480985022782EE2FB081F
:10120200E2FA08E2F98D828C83120D05FF121601B3
:101212007836E22401F218E23400F280C5D2960256
:021222000003C7
:0A16AB00C2967F06121601D29622A5
:0800030012168BEF20E0F92238
:0F168B00E4C2967F051216017FFF121601D29658
:01169A00222D
:10111D00785EEBF208EAF208E9F208ECF208EDF27B
:10112D00C2967F031216017861E2FE08E27810CEB6
:10113D00C313CE13D8F9FF1216017861E2FF121610
:10114D0001786108E2FF121601E47865F208F27881
:10115D0063E2FE08E2FFC37866E29FEE6480F5F07D
:10116D0018E2648095F0502A7FFF121601785EE236
:10117D00FB08E2FA08E2F97865E2FC08E2F5828CF8
:10118D0083EF120D327866E22401F218E23400F298
:04119D0080BDD296A9
:0111A100222B
:1015E000E47837F2FEC292EF30E702D292EF25E0C4
:1015F000FFC291A290E4334FFFD2910EEEB408E502
:0116000022C7
:10160100E47867F2FEC292EF30E702D292EF25E072
:10161100FFD291A290E4334FFFC2910EEEB408E5E0
:0116210022A6
:10162200E47838F27838E2FFC3940A50121213C8F1
:0F163200780DE2B432EEE4F27838E204F280E5AB
:011641002286
:0413C8007839EFF28F
:1013CC00E408F2783AE2FF18E275F008A4240EF56E
:1013DC0082E5F03400F583E5822FF582E43583F560
:1013EC0083E493F5A07401A807088002C333D8FCEA
:1013FC00F5807F017E00121578E4F580783AE204DE
:07140C00F2E2C3940840BCAA
:0114130022B6
:10169B00758901D2AF758CB1758AE0D2A9D28C2233
:03000B0002164298
:10164200C0E0C0D075D000C000758CB1758AE0785A
:0B1652000DE204F2D000D0D0D0E03256
:030000000210915A
:0C109100787FE4F6D8FD7581070210D8C6
:100BF600E709F608DFFA8046E709F208DFFA803EE1
:100C060088828C83E709F0A3DFFA8032E309F608CD
:100C1600DFFA8078E309F208DFFA807088828C8335
:100C2600E309F0A3DFFA806489828A83E0A3F608E9
:100C3600DFFA805889828A83E0A3F208DFFA804CC3
:100C460080D280FA80C680D4806980F2803380109A
:100C560080A680EA809A80A880DA80E280CA803303
:100C660089828A83ECFAE493A3C8C582C8CCC5837B
:100C7600CCF0A3C8C582C8CCC583CCDFE9DEE7804B
:100C86000D89828A83E493A3F608DFF9ECFAA9F0CA
:100C9600EDFB2289828A83ECFAE0A3C8C582C8CC20
:100CA600C583CCF0A3C8C582C8CCC583CCDFEADE39
:100CB600E880DB89828A83E493A3F208DFF980CC9B
:100CC60088F0EF60010E4E60C388F0ED2402B40494
:100CD6000050B9F582EB2402B4040050AF2323453B
:060CE6008223900C46730E
:100CEC00BB010689828A83E0225002E722BBFE0206
:090CFC00E32289828A83E4932239
:100D0500BB010CE58229F582E5833AF583E02250A3
:100D150006E92582F8E622BBFE06E92582F8E222ED
:0D0D2500E58229F582E5833AF583E4932207
:100D3200F8BB010DE58229F582E5833AF583E8F0F7
:100D4200225006E92582C8F622BBFE05E92582C8A3
:020D5200F2228B
:100D5400EF8DF0A4A8F0CF8CF0A428CE8DF0A42EB3
:020D6400FE226D
:100D6600BC000BBE0029EF8DF084FFADF022E4CC71
:100D7600F875F008EF2FFFEE33FEEC33FCEE9DEC3A
:100D8600984005FCEE9DFE0FD5F0E9E4CEFD22ED80
:100D9600F8F5F0EE8420D21CFEADF075F008EF2FCA
:100DA600FFED33FD4007985006D5F0F222C398FDBB
:050DB6000FD5F0EA2258
:100DBB00C2D5EC30E709B2D5E4C39DFDE49CFCEE53
:100DCB0030E715B2D5E4C39FFFE49EFE120D66C358
:100DDB00E49DFDE49CFC8003120D6630D507C3E453
:060DEB009FFFE49EFE22C2
:10109D0002136BE493A3F8E493A34003F68001F2EB
:1010AD0008DFF48029E493A3F85407240CC8C33354
:1010BD00C4540F4420C8834004F456800146F6DF23
:1010CD00E4800B01020408102040809016B5E47EE8
:1010DD00019360BCA3FF543F30E509541FFEE49318
:1010ED00A360010ECF54C025E060A840B8E493A3DF
:1010FD00FAE493A3F8E493A3C8C582C8CAC583CA0A
:10110D00F0A3C8C582C8CAC583CADFE9DEE780BEC1
:0116B8000031
:00000001FF
