:1002A1003F065B4F666D7D077F6F777C395E7971A5
:0802B100FEFDFBF7EFDFBF7F4C
:0A02B900080900000000000000002A
:10025800E4FDFCC3ED9FEE6480F8EC6480985015D3
:10026800E4FBFA0BBB00010AEB646E4A70F50DBDA6
:0502780000010C80DE16
:01027D00225E
:10000300E4F511F512F513F514C3E5149410E51393
:10001300648094A740170512E51270020511AE1310
:10002300AF147C037DE81201CD8C138D14AE13AF96
:10003300147C007D0A1201CD8D09AE13AF147C0030
:100043007D0A1201CD7C007D0A1201CD8D0AAE130B
:10005300AF147C007D641201CD7C007D0A1201CDBA
:100063008D0BAE13AF147C037DE81201CD7C007DB4
:100073000A1201CD8D0CAE11AF127C007D0A120164
:10008300CD8D0DAE11AF127C007D0A1201CD7C0027
:100093007D0A1201CD8D0EAE11AF127C007D64126C
:1000A30001CD7C007D0A1201CD8D0FAE11AF127C04
:1000B300037DE81201CD7C007D0A1201CD8D1085F0
:1000C300A008E5A0F4600512027E80F6E50824810D
:1000D300605A24C0604C24E0603E24F0603024F871
:1000E300602224FC601524FE600D14704B0514E59A
:1000F30014704505138041740A800274642514F555
:1001030014E4803074E82514F51474038026E51490
:10011300151470241513802074F62514F51474FF38
:100123008012749C2514F51474FF80087418251428
:0E013300F51474FC3513F51312027E02000C55
:10027E00E4F9E99002B193F580C37407992409F863
:10028E00E69002A193F5907F017E0012025809B903
:02029E0008E076
:0102A000223B
:03000000020141B9
:0C014100787FE4F6D8FD75811402018877
:1001CD00C2D5EC30E709B2D5E4C39DFDE49CFCEE4D
:1001DD0030E715B2D5E4C39FFFE49EFE120203C3C0
:1001ED00E49DFDE49CFC800312020330D507C3E4BB
:0601FD009FFFE49EFE22BC
:10014D00020003E493A3F8E493A34003F68001F2C5
:10015D0008DFF48029E493A3F85407240CC8C333B3
:10016D00C4540F4420C8834004F456800146F6DF82
:10017D00E4800B01020408102040809002B9E47E57
:10018D00019360BCA3FF543F30E509541FFEE49377
:10019D00A360010ECF54C025E060A840B8E493A33E
:1001AD00FAE493A3F8E493A3C8C582C8CAC583CA69
:1001BD00F0A3C8C582C8CAC583CADFE9DEE780BE21
:0102C300003A
:10020300BC000BBE0029EF8DF084FFADF022E4CCDF
:10021300F875F008EF2FFFEE33FEEC33FCEE9DECA8
:10022300984005FCEE9DFE0FD5F0E9E4CEFD22EDEE
:10023300F8F5F0EE8420D21CFEADF075F008EF2F38
:10024300FFED33FD4007985006D5F0F222C398FD29
:050253000FD5F0EA22C6
:00000001FF
