:1000600020B0D9D4BDB4B4BFC6B9A4D7F7CAD22082
:100070002020554152542054657374696E67200ADC
:01008000007F
:10003A00E4FDFCC3ED9FEE6480F8EC6480985015F3
:10004A00E4FBFA0BBB00010AEB646E4A70F50DBDC6
:05005A0000010C80DE36
:01005F00227E
:10008100758920758DFD758BFDD28EC29FD29ED252
:060091009CD2ACD2AF22AC
:10000300E4F508F509120081E4F508F509746025A3
:1000130009F58274003508F583E4936011F599308E
:1000230099FDC2990509E50970E3050880DF7FE8BA
:070033007E0312003A80D1A8
:0300000002009764
:0C009700787FE4F6D8FD758109020003B3
:00000001FF
