:10021C007814EFF208EDF208EBF208EAF208E9F2D2
:10022C0012038C7814E2FF120282200002C322789F
:10023C0015E2FF120282200002C322E4781AF2783F
:10024C0019E2FF08E2C39F50287816E2FB08E2FA95
:10025C0008E2F91200F9FF120282200002C3227890
:10026C0018E22401F218E23400F2781AE204F28067
:05027C00CE1203DCD3EB
:01028100225A
:100124007814EFF208EDF208EBF208EAF208E9F2CB
:1001340012038C7814E2FF120282200002C3227898
:1001440015E2FF120282200002C32212038C7814EB
:10015400E204FF120282200002C322E4781AF27839
:1001640019E214FF08E2C39F50281203127816E222
:10017400FB08E2FA08E2F9EF120112C20112037459
:100184007818E22401F218E23400F2781AE204F258
:1001940080CD1203127816E2FB08E2FA08E2F9EFC6
:0C01A400120112D2011203741203DCD30A
:0101B000222C
:10038C00D2A100D2A00000000000C2A10000000019
:06039C0000C2A0000022D7
:1003DC00C2A100D2A00000000000D2A100000000C9
:0103EC0022EE
:10028200E4FEEFA806088002C333D8FC30E704D2AC
:10029200A18002C2A100D2A00000000000C2A00EF4
:1002A200EEB408DE0000D2A10000D2A000000030AF
:0C02B200A104C2008002D200C2A0000023
:0102BE00221D
:10031200E4FFD2A1FE00C2A00000000000D2A000B3
:1003220000EF25E0FF30A1010F00000EEEB408E55A
:04033200C2A0000065
:0103360022A4
:10037400200104C2A18002D2A1000000D2A000008A
:08038400000000C2A0000022ED
:1003A2004265796F6E646179000000000000000010
:0403B2000000000047
:1002EC00E4FDFCC3ED9FEE6480F8EC64809850153F
:1002FC00E4FBFA0BBB00010AEB646E4A70F50DBD12
:05030C0000010C80DE81
:0103110022C9
:1001B10078007C007DFE7BFF7A0379A27E007F09B7
:1001C1001200D378097C007DFE7BFF7A0379AB7E38
:1001D100007F0B1200D31202BF7BFE7A00790078F8
:1001E10019740BF2E4FD7FA012021C7F647E0012E1
:1001F10002EC7BFE7A0079097819740BF2E4FD7F39
:10020100A01201247F647E001202ECE4FF120418A4
:0B0211007BFE7A0079091203C980FE11
:0E03FD00E4FFE4FE0EEEB421FB0FEFB40AF4B1
:01040B0022CE
:0203ED00AD075A
:0D03EF00E4FCECC39D50061203FD0C80F5EC
:0103FC0022DE
:1003B600C2A5D2A4D2A300000000A2879201C2A3C4
:0203C600A20192
:0103C8002212
:070337007F051203ED7F3882
:10033E001203B640FBC2A5C2A4C2A300008F800068
:0C034E00000000D2A300000000C2A322A7
:07041800EF4480FF02033EE8
:10035A001203B640FBD2A5C2A4C2A38F800000003C
:0A036A0000D2A300000000C2A3228D
:1003C9001200F9FF600C12035A740129F9E43AFA90
:0303D90080EE2291
:1002BF007F0F1203391203371203377F051203ED35
:1002CF007F0C12033E7F051203ED7F0612033E1FC4
:0D02DF001203ED7F0112033E7F050203EDC7
:0300000002040CEB
:0C040C00787FE4F6D8FD7581200201B174
:10000300E709F608DFFA8046E709F208DFFA803EDF
:1000130088828C83E709F0A3DFFA8032E309F608CC
:10002300DFFA8078E309F208DFFA807088828C8334
:10003300E309F0A3DFFA806489828A83E0A3F608E8
:10004300DFFA805889828A83E0A3F208DFFA804CC2
:1000530080D280FA80C680D4806980F28033801099
:1000630080A680EA809A80A880DA80E280CA803302
:1000730089828A83ECFAE493A3C8C582C8CCC5837A
:10008300CCF0A3C8C582C8CCC583CCDFE9DEE7804A
:100093000D89828A83E493A3F608DFF9ECFAA9F0C9
:1000A300EDFB2289828A83ECFAE0A3C8C582C8CC1F
:1000B300C583CCF0A3C8C582C8CCC583CCDFEADE38
:1000C300E880DB89828A83E493A3F208DFF980CC9A
:1000D30088F0EF60010E4E60C388F0ED2402B40493
:1000E3000050B9F582EB2402B4040050AF2323453A
:0600F3008223900053730C
:1000F900BB010689828A83E0225002E722BBFE0205
:09010900E32289828A83E4932237
:10011200BB010689828A83F0225002F722BBFE01CC
:02012200F322C6
:00000001FF
